:020000040000fa
:04025c00682f000007
:020000040000fa
:04021000682f000053
:020000040000fa
:04027400682f0000ef
:020000040000fa
:04033400682f00002e
:020000040000fa
:04035c00682f000006
:020000040000fa
:04027000682f0000f3
:020000040000fa
:04022c00682f000037
:020000040000fa
:04023c00682f000027
:020000040000fa
:0402bc00682f0000a7
:020000040000fa
:0402c000682f0000a3
:020000040000fa
:0402c400682f00009f
:020000040000fa
:0402c800682f00009b
:020000040000fa
:04028000682f0000e3
:020000040000fa
:04028400682f0000df
:020000040000fa
:04039c00682f0000c6
:020000040000fa
:04022800682f00003b
:020000040000fa
:04027800682f0000eb
:020000040000fa
:04029c00682f0000c7
:020000040000fa
:0402fc00682f000067
:020000040000fa
:04030000682f000062
:020000040000fa
:04026000682f000003
:020000040000fa
:04026400682f0000ff
:020000040000fa
:04027c00682f0000e7
:020000040000fa
:04028800682f0000db
:020000040000fa
:0402b000682f0000b3
:020000040000fa
:0402b400682f0000af
:020000040000fa
:0402b800682f0000ab
:020000040000fa
:04023800682f00002b
:020000040000fa
:0402e000682f000083
:020000040000fa
:0402e400682f00007f
:020000040000fa
:0402e800682f00007b
:020000040000fa
:0402f400682f00006f
:020000040000fa
:0402f800682f00006b
:020000040000fa
:04030400682f00005e
:020000040000fa
:04030800682f00005a
:020000040000fa
:04030c00682f000056
:020000040000fa
:04031000682f000052
:020000040000fa
:04031400682f00004e
:020000040000fa
:04031800682f00004a
:020000040000fa
:04031c00682f000046
:020000040000fa
:04032400682f00003e
:020000040000fa
:04032800682f00003a
:020000040000fa
:04033800682f00002a
:020000040000fa
:04033c00682f000026
:020000040000fa
:04034000682f000022
:020000040000fa
:04034400682f00001e
:020000040000fa
:04034c00682f000016
:020000040000fa
:04035000682f000012
:020000040000fa
:04035400682f00000e
:020000040000fa
:04035800682f00000a
:020000040000fa
:04036000682f000002
:020000040000fa
:04036400682f0000fe
:020000040000fa
:04036800682f0000fa
:020000040000fa
:04034800682f00001a
:020000040000fa
:04026c00682f0000f7
:020000040000fa
:0402f000682f000073
:020000040000fa
:04037c00682f0000e6
:020000040000fa
:04021800682f00004b
:020000040000fa
:04023000682f000033
:020000040000fa
:04024000682f000023
:020000040000fa
:04028c00682f0000d7
:020000040000fa
:04029000682f0000d3
:020000040000fa
:0402cc00682f000097
:020000040000fa
:0402d000682f000093
:020000040000fa
:0402d400682f00008f
:020000040000fa
:0402d800682f00008b
:020000040000fa
:04039800682f0000ca
:020000040000fa
:04020c00682f000057
:020000040000fa
:0402dc00682f000087
:020000040000fa
:04032000682f000042
:020000040000fa
:04020800682f00005b
:020000040000fa
:04021c00682f000047
:020000040000fa
:04022000682f000043
:020000040000fa
:04022400682f00003f
:020000040000fa
:04026800682f0000fb
:020000040000fa
:0402ec00682f000077
:020000040000fa
:04037800682f0000ea
:020000040000fa
:04024c00682f000017
:020000040000fa
:04025000682f000013
:020000040000fa
:0402a800682f0000bb
:020000040000fa
:0402ac00682f0000b7
:020000040000fa
:04039000682f0000d2
:020000040000fa
:04039400682f0000ce
:020000040000fa
:04021400682f00004f
:020000040000fa
:04023400682f00002f
:020000040000fa
:04024400682f00001f
:020000040000fa
:04024800682f00001b
:020000040000fa
:04029400682f0000cf
:020000040000fa
:04029800682f0000cb
:020000040000fa
:04032c00682f000036
:020000040000fa
:04025400682f00000f
:020000040000fa
:04025800682f00000b
:020000040000fa
:04033000682f000032
:020000040000fa
:0402a000682f0000c3
:020000040000fa
:0402a400682f0000bf
:020000040000fa
:04036c00682f0000f6
:020000040000fa
:04037000682f0000f2
:020000040000fa
:04037400682f0000ee
:020000040000fa
:04038400682f0000de
:020000040000fa
:04038800682f0000da
:020000040000fa
:04038c00682f0000d6
:020000040000fa
:04038000682f0000e2
:020000040000fa
:080000001011040000000000d3
:020000040000fa
:102220000fc220000eff27000e01880000000000f2
:10223000000020000000e000020032000001200049
:102240002002880014000700910007000000e00051
:1022500003003a00a0ef2200010020000200370036
:102260000000200001002000810f700001003200fa
:1022700014000700000020000000e000020032000f
:102280000000020000000000762a020000000000aa
:102290000040da000000fe004440a90020062000b3
:1022a0000000e000030032000020200090018800c0
:1022b0004440a800000006008a1f78008b1f7800a9
:1022c00000000600a1028800800478000000eb00f6
:1022d0001f003700e284440054a0b4009905ba00fe
:1022e000e284440054a0b4009906ba00e284440099
:1022f00054a0b4000006eb00476fde00fd07b200fb
:10230000ae018800636ce10003003a00eaff0700b9
:102310000000eb000e003700606ce10008003a009e
:10232000004deb000a05e800020039003420ec0003
:102330000af0a0008b05e900f9ff3e000400370019
:102340006168e100010032000086eb000b0007002d
:1023500019c7ba001905ba000e04e00003003a00dc
:102360000a00e000dbff3a0000000600fe07b200b2
:10237000ae0288008a047800f5ff37000cd0a30075
:10238000e20f4d001c00390089027800354dba007b
:102390000a05e800020039003420ec000af0a00031
:1023a0008b05e9000f003200254dba000a05e80050
:1023b000020039003420ec000af0a0008b05e9008f
:1023c000080032000c00e0000600320015cdba0013
:1023d0000a05e800020039003420ec000af0a000f1
:1023e0008b05e9008984e80054a0b4000b00e000ec
:1023f000e2ff3a00000006009902ba00055d78008d
:102400008b05e900f7ff3200c82ade00055d780081
:102410008b05e900f3ff32000c00e000f1ff320011
:1024200019ddba00eeff3700c220040000000000f2
:102430007e20040000000000e420040000000000f2
:102440006e2504000000000040250400000000008c
:10245000d825040000000000a625040000000000ac
:10246000000178001001e200030035001061a800af
:10247000000028001021b7003008800041088000cb
:102480000200e000010032000089be0000000600ea
:102490000000050003f0a200889fbe008a9fbe00d6
:1024a0008c1f7800f7000700fe0033006450e10045
:1024b0004f0032006420e1005200320003826c00c1
:1024c00007003b000905d0000306d000820f54002e
:1024d0000c065d000200390002003200890178001c
:1024e000030678008582550004003d000003fd00ce
:1024f0008103fd008502ea008b854200840f720093
:1025000002003b0060001000e08018006011b8007d
:102510000005eb007a28e1000a0039000600780087
:10252000c75ddd00f707b200878075002d0037001a
:10253000828171000a017800610560008180d1000c
:102540000080d3008502e900f9ff3b00060440004b
:102550008784480002003b0060041400e0841c00f3
:102560000988a300070032008a817100828171000e
:10257000610164008904d1000884d3008b05e80060
:10258000170037000978a30013003a000b00e000a1
:10259000130034008b05e9000804440089844c00d2
:1025a0000a4474000978a3000d003a000b00e00013
:1025b000070034008b05e9000804440089844c00be
:1025c00001003a000b0020000978a300f7ff320059
:1025d0000001eb0002003700828171000a017800df
:1025e0006d0007000cf0a70001f0a000b600370056
:1025f0006420e10002003a00838f6c00b6003300d3
:102600000801be000200be00af003700889fbe0078
:102610008a9fbe008c1f78009a000700a10033003b
:1026200003866c006450e1002e0032006420e1005b
:10263000330032006150e1002f0032006120e100e0
:102640003100320085855500eb07b00009002000fd
:1026500008042000050037000804440089844c0069
:102660000a0031000603430087834b00000153003a
:1026700081815b00f8ff33000203be000800a00068
:102680000804440089844c00f6ff3900c639dd0097
:102690008301730001003200130020008904d1007f
:1026a0000884d3000998a300050032000800a700a1
:1026b0000300a0008904d1000884d3008b05e80042
:1026c0008904d1000884d3000001eb000281d2000c
:1026d0003100070001f0a1000cf0a70001f0a000fc
:1026e000790037006420e1007b0032000801be0061
:1026f0000200be00f7ff37006120e10076003200e3
:102700006000b800f3ff37000000200001f8270048
:10271000f0ff370014002000b6003700f4ff2f0050
:10272000b40037000001be00410007000470a7009c
:1027300003f0a10003f8a30013003a006509b100fb
:1027400010003200090035006928e1000200350060
:1027500001002800000005000000400081804800c2
:102760008502e900fcff3a0000000600f88f4200f5
:10277000050035008100d1000080d3008502e8000b
:10278000fcff3a00000006008000eb00000005009e
:102790006011b800b2003700810020006180550050
:1027a0000b003d000b00200061fe2f000100e10046
:1027b0001d00340082817100610164008904d10030
:1027c0000884d3000000e800faff3a0071002000fe
:1027d0006100640003007000020060000900320024
:1027e00061044400e0844c000988a5000500320023
:1027f0008b05e8006808e10002003a008904d10076
:102800000884d300f20f20000258e10005003d00cb
:10281000c75ddd00f907b200898075000800780007
:10282000000006000bf827008b0078000000050070
:10283000c70ade00f107b200f50fb200080032004f
:10284000e1cf4200020032000170a0002400050028
:10285000810f7000010032000408050044000500eb
:10286000810f700002003a00140005008502e900a3
:102870000000400081c04800fcff3b000170a00048
:10288000240005000004be00e9ff07000003be00ad
:102890000405be000200be00e5ff0700844f75007e
:1028a000000006000200be006450e1000500360092
:1028b0006420e100020036000968a30001003a002c
:1028c0000800be000160a0004f0678004f05be0062
:1028d0004f04be0000000600f0ff2f00f1ff2700ac
:1028e000f9ff3700889fbe008a9fbe008c1f7800ca
:1028f000e4ff0700ebff330003866c006450e10047
:10290000240032006420e100270032006150e10021
:10291000220032006120e100210032008b8542005c
:10292000eb07b1000134b800003ab80008044200d7
:1029300089844a00013ab8000030b800888040001d
:1029400009014a0004003300000040008180480073
:10295000020149008b05e900c909dd00830170000f
:102960000100320013002000c814de004814dd000e
:102970004709de001200b200c808de0008847000bb
:1029800085ff070001f0a1000cf0a70001f0a000f6
:10299000cdff37006120e100cfff32000801be000b
:1029a0000200be00f7ff37006150e100fcff3a0073
:1029b000c9ff37006022b800060220000000d000e6
:1029c0008180d2000482d2008582d2000000a00063
:1029d0000202520083825a000300310002024200c8
:1029e00083824a000000a1000603e900f3ff3a00d9
:1029f00000000600889fbe008a9fbe00841f7800ea
:102a0000a0ff07004f00780011003300f0ff2f00f7
:102a1000838f6c0006003b00040565000a00a700d8
:102a20000800370009f0a600100020000800370059
:102a3000820f5400838f5c000300390010002000d7
:102a400001003e000000200009f0a7000000ea009d
:102a50004f05be004f04be000000e000000006006d
:102a6000889fbe008a9fbe00008270000402710031
:102a700004827100260032000004be000200be0085
:102a80006011b8006b092000950220000182cf0080
:102a90000a0039000541b1000082cf00070039006b
:102aa0000541b1000982cf00040039000541b100a1
:102ab0000882cf00010039000541b10005425200f3
:102ac000120032000a003b00828171006101640043
:102ad0008100d1000080d3008984d3000884d30012
:102ae0008b05e8000442e800f7ff3a0007003700d2
:102af0000804440089844c0000004800818048009c
:102b00008b05e9000442e900f9ff3a0022ff0700c3
:102b10004f05be004f04be0000000600889fbe00a7
:102b2000a05680000000e00001003200000001001b
:102b3000b05680000000e0000100320000000100fb
:102b400020ad20001004e00022003a00e060800088
:102b5000f160800088002000d260260093012000f0
:102b600046000700f2352f00e3c6230000004100b5
:102b7000818049000804e900f7ff3a0088ad200091
:102b80000908200088844400d260260093012000b8
:102b90003a000700f2352f00e3c623000000410091
:102ba0008180490000acbe00890f5400f6ff3a0056
:102bb000e0608800f1608800c05a8000d15a80002f
:102bc000c0568800d156880011c0b30020ad200047
:102bd00001487800d260260093012000e060800068
:102be000f160800025000700f2352f00e3c62300c6
:102bf0000002410081824900e4608800f56088009d
:102c000080ad2000100078007f0160004211dd00df
:102c1000c0ad2000020140001200be00c056880076
:102c2000d15688000489be000100780000f0a100a0
:102c30004f04be0000000600889fbe00000478001c
:102c4000a05680000000e0000100320000000100fa
:102c500020ad20000048eb00b05680000000e000ee
:102c600001003200000001008004eb00e8608800f1
:102c7000f96088004f04be0000000600020ab90097
:102c8000001bb9000200b80081004200810043002f
:042c9000000006003a
:020000040000fa
:020000040002f8
:04aff400031c00003a
:020000040000fa
:020000040002f8
:04aff8000f890000bd
:020000040000fa
:020000040002f8
:04affc007f3e000094
:020000040000fa
:102000001011040000000000682f04000000000010
:10201000682f040000000000682f0400000000008a
:10202000682f040000000000682f0400000000007a
:10203000682f040000000000682f0400000000006a
:10204000682f040000000000fe16040000000000dd
:10205000682f040000000000682f0400000000004a
:102060002c170400000000005a17040000000000b4
:10207000682f040000000000682f0400000000002a
:10208000682f040000000000682f0400000000001a
:10209000682f040000000000682f0400000000000a
:1020a000682f040000000000682f040000000000fa
:1020b000682f040000000000682f040000000000ea
:1020c000682f040000000000682f040000000000da
:1020d000682f040000000000682f040000000000ca
:1020e0008817040000000000b6170400000000007c
:1020f000682f040000000000682f040000000000aa
:10210000682f040000000000682f04000000000099
:10211000682f040000000000682f04000000000089
:10212000682f040000000000682f04000000000079
:10213000682f040000000000682f04000000000069
:10214000682f040000000000682f04000000000059
:10215000682f040000000000682f04000000000049
:10216000682f040000000000682f04000000000039
:10217000682f040000000000682f04000000000029
:10218000682f040000000000682f04000000000019
:10219000682f040000000000682f04000000000009
:1021a000682f040000000000682f040000000000f9
:1021b000682f040000000000682f040000000000e9
:1021c000682f040000000000682f040000000000d9
:1021d000682f040000000000682f040000000000c9
:1021e000682f040000000000682f040000000000b9
:1021f000682f040000000000682f040000000000a9
:10220000682f040000000000682f04000000000098
:10221000682f040000000000682f04000000000088
:020000040000fa
:1000080004100000081000000c1000001010000080
:10001800141000000c1100000c1100000c1100005d
:10002800181000001c100000201000002410000010
:100038000c110000281000002c10000030100000e7
:1000480034100000381000003c1000004010000080
:1000580044100000481000000c1100000c110000b2
:100068004c10000050100000541000005810000000
:100078005c1000000c11000060100000641000000b
:100088000c110000681000006c10000070100000d7
:1000980074100000781000007c1000008010000030
:1000a80084100000881000000c1100000c110000e2
:1000b8000c1100008c10000090100000941000003b
:1000c800981000009c100000a0100000a410000070
:1000d800a8100000ac1000000c1100000c1100006a
:1000e8000c110000b0100000b41000000c1100004a
:1000f8000c110000b8100000bc1000000c1100002a
:100108000c1100000c1100000c1100000c11000073
:100118000c1100000c110000c01000000c110000b0
:100128000c110000c4100000c8100000cc10000022
:100138000c1100000c1100000c1100000c11000043
:10014800d01000000c1100000c1100000c11000070
:100158000c110000d41000000c1100000c1100005c
:100168000c110000d8100000dc100000e0100000a6
:10017800e4100000e8100000ec100000f01000008f
:10018800f4100000f8100000fc100000001100003e
:1001980004110000081100000c1100000c110000ef
:1001a8000c1100000c1100000c1100000c110000d3
:1001b8000c1100000c1100000c1100000c110000c3
:1001c8000c1100000c1100000c1100000c110000b3
:1001d8000c1100000c1100000c1100000c110000a3
:1001e8000c1100000c1100000c1100000c11000093
:0801f8000c1100000c110000c5
:020000040000fa
:102c940012010000000200000000000000400000db
:102ca400666600000300000000000000010200004e
:102cb40000010000090200001200000001010000f0
:102cc40000a0000032090000040000000000000021
:102cd400ff000000ff0000000403000009040000de
:102ce4001a0300004f0000006c000000690000009f
:102cf4006e00000020000000430000006f00000090
:102d04006c0000006c00000065000000670000001b
:102d1400650000002003000050000000490000008e
:102d240043000000320000003400000046000000b0
:102d34004a000000310000003200000038000000aa
:102d44004700000042000000320000003000000094
:042d54003600000045
:020000040000fa
:102d58000200fa00000f78001e0078000102070048
:102d68001e007800100890000000e0000500320006
:102d78001e007800900890001e00780001000100f5
:102d88001a0037001e007800200890000000e000bc
:102d9800140032001e007800000890000000e000d7
:102da8000a0032001e007800a00890001e0078007b
:102db800010001001e007800000890008000e90072
:102dc8001e00780001089800080037001e007800ef
:102dd8000c0207001e0078008000eb002108980014
:102de800020037001e007800060207000080fa0083
:102df800000006003600f800809fbe00829fbe00db
:102e0800849fbe00869fbe003200f8003400f800a0
:102e180010002000a00188000020200090018800f8
:102e28000000fa00c0b52000c9ff07000080fa00c2
:102e38003400f9003200f9004f03be004f02be0013
:102e48004f01be004f00be003600f90000400600ea
:102e58003600f800809fbe00829fbe00849fbe009f
:102e6800869fbe003200f8003400f80010002000f1
:102e7800a001880000202000900188000000fa00ce
:102e880020b72000b2ff07000080fa003400f900e4
:102e98003200f9004f03be004f02be004f01be00d2
:102ea8004f00be003600f900004006003600f8006a
:102eb800809fbe00829fbe00849fbe00869fbe008a
:102ec8003200f8003400f80010002000a00188004b
:102ed80000202000900188000000fa0080b820003f
:102ee8009bff07000080fa003400f9003200f90067
:102ef8004f03be004f02be004f01be004f00be0090
:102f08003600f900004006003600f800809fbe0039
:102f1800829fbe00849fbe00869fbe003200f800dc
:102f28003400f80010002000a001880000202000d4
:102f3800900188000000fa00e0b9200084ff070033
:102f48000080fa003400f9003200f9004f03be0097
:102f58004f02be004f01be004f00be003600f90010
:102f6800004006003600f800809fbe00829fbe0029
:102f7800849fbe00869fbe003200f8003400f8002f
:102f880010002000a0018800002020009001880087
:102f98000000fa0040bb20006dff07000080fa0027
:102fa8003400f9003200f9004f03be004f02be00a2
:102fb8004f01be004f00be003600f9000040060079
:102fc8000000fa00b0002000801f780047002000b1
:102fd80036c0b30045092000440820000310200033
:102fe8002210200041102000c0b520003300070047
:102ff8008f87e900c0002000801f78008003eb0065
:1030080076c0b30045092000440820006310200062
:10301800c21020000111200020b72000270007005f
:103028008f87e900d0002000801f7800170020005b
:1030380086c0b3004509200044082000a3102000e2
:10304800e21020002111200080b820001b0007009a
:103058008f87e900e0002000801f7800270020000b
:10306800b6c0b300650920006408200043112000a1
:10307800a2112000e1112000e0b920000f00070094
:103088008f87e900f0002000801f780037002000bb
:10309800c6c0b30065092000640820008311200021
:1030a800c21120000112200040bb200003000700cd
:1030b8008f87e9000080fa00000006001000fa007f
:1030c800000f78001107980022079800330798002e
:1030d8004407980055079800464f980077079800ce
:1030e8001e0078009e009000010878001e007800fd
:1030f800ae009000110098001e007800be009000fd
:10310800210098001e007800ce0090003100980041
:103118001e007800de009000410098001e00780034
:10312800ce489000214898001e007800fe009000cc
:10313800610098001e007800ceb8970071009800d2
:103148001e0078008000eb00010898001e0078003f
:103158008000eb00110898001e0078008000eb004a
:10316800210898000080fa00000006000600fa0016
:10317800881f7800000f780012079800230798002e
:1031880018c0b300d27b230063f823001e00900010
:10319800ae0090005ffd07000000e00001003c0069
:1031a8000044eb000804e00069003a0018c0b300ce
:1031b800d27b230063e823001e009000ae0090003d
:1031c80054fd07000000e00001003c000044eb0053
:1031d8000804e000120032001e007800c400070056
:1031e8001e00780010007800010320000108780014
:1031f8001e0078001004900002402200437724004b
:103208001e009000ae009000b4fd070043fd0700cb
:10321800000078000000e900000c78004d0037003d
:1032280018c0b300d27b230063d023001e00900097
:10323800ae00900037fd07000000e00001003c00f0
:103248000044eb000804e000120032001e00780081
:10325800a70007001e007800100078000102200077
:10326800010878001e007800100490000240220037
:10327800438724001e009000ae00900097fd0700d1
:1032880026fd0700000078000000e900000c780027
:103298003000370018c0b300d27b230063b8230086
:1032a8001e009000ae0090001afd07000000e0002c
:1032b80001003c000044eb000804e000120032006a
:1032c8001e0078008a0007001e00780010007800b1
:1032d80001012000010878001e0078001004900009
:1032e80002402200439f24001e009000ae00900080
:1032f8007afd070009fd0700000078000000e900da
:10330800000c7800130037001e00780078000700d2
:103318001e007800100078008000eb00010878009b
:103328001e007800100490000240220043b72400d9
:103338001e009000ae00900068fd0700f7fc070033
:10334800000078000000e900000c78000100370058
:10335800000000004f0478000080fa00000006001a
:103368000400fa00889fbe00100798001e00900015
:1033780010007800900078000003200000806000b2
:103388004400de00000f78001e007800c200dd0057
:10339800c0c02000008040001004be001e00900045
:1033a80010009000100078008000eb00f6fc070089
:1033b8000200200003f8230035fc07000001be00ce
:1033c8000800be0045fd07004f04be000080fa005b
:1033d800000006000600fa00000f780012079800a7
:1033e800230798001e019000ae0190000000200005
:1033f80001f8230083fc07000001be001e007800ce
:103408005aff07000080fa00000006000200fa00d8
:10341800000f78001e007800d1ff07000001be00f1
:103428000000200001f8230076fc07000080fa0065
:10343800000006000400fa00889fbe0010079800ec
:103448001e00900010007800900078000003200013
:10345800008060004400de00000f78001e00780045
:10346800c200dd00c0c02000008040001004be0083
:103478001e00900010009000100078008000eb0003
:10348800c1fc07000200200003f8230000fc07002d
:103498000001be000800be0010fd07004f04be007a
:1034a8000080fa00000006000200fa00000f780011
:1034b8001e0078002b0007001e00780020009000f6
:1034c8008000eb00010878001e00780010007800ea
:1034d8009e00780091007800110178000100280012
:1034e80082807000010878000080fa000000060061
:1034f8000200fa00000f78001e0078001000780023
:103508009e0078009100780011017800f1ff2700f3
:1035180081006100010878000080fa0000000600c0
:103528000200fa00000f78001e00780030009000ba
:10353800900078001e007800204890000080fb0072
:10354800120020000010dd000080600000f0a700dd
:103558000000ea000000ea004f00de000080fa00e8
:10356800000006000200fa00000f78001e00780034
:10357800300090009e007800b100900011017800a2
:103588009e007800a14890008180fb001300200075
:103598008118dd008180ea0081006100010878005f
:1035a8000080fa00000006000200fa00000f780010
:1035b8001e00780020009000100078000080fa00bb
:1035c800000006000200fa00000f78001e007800d4
:1035d800400090009e007800c10090001101780022
:1035e8009e007800a14890008180fb001300200015
:1035f8008118dd0082807000010878000080fa00e0
:10360800000006000200fa00000f78001e00780093
:10361800400090009e007800c100900011017800e1
:103628009e007800a14890008180fb0013002000d4
:103638008118dd008180ea008100610001087800be
:103648000080fa00000006000800fa00000f780069
:103658001207980023079800310798001e00780089
:10366800e8ff07001e019000ae0190001e007800e0
:10367800befe07001e0078008000eb0001089800dd
:103688001e007800be009000110898001e00780007
:103698008000eb00210898001e007800c9ff070091
:1036a8001e00780080ff07000080fa000000060076
:1036b8000a00fa00000f7800120798002307980004
:1036c80031079800440798001e007800cdff0700d6
:1036d8001e019000ae0190001e007800a3fe0700b6
:1036e8001e007800be009000010898001e007800b7
:1036f8008000eb00110898001e007800ce009000b2
:10370800210898001e007800aeff07001e00780010
:1037180065ff07000080fa00000006000200fa00ba
:10372800000f78001e007800b6ff07001e00780022
:103738008cff07001e0078006dff07001e00780050
:103748008000eb00010898001e0078008000eb0064
:10375800110898001e0078008000eb0021089800ee
:103768000080fa00000006000000fa008000200037
:10377800801f7800770020000043eb00856a200056
:103788008424200043242000222420000124200037
:10379800a0bc20001b0007008f87e900b0002000b4
:1037a800801f7800a70020000043eb00c56a2000b6
:1037b80084262000432620002226200001262000ff
:1037c80000be20000f0007008f87e90010022000cc
:1037d800801f7800070220000043eb00856b200063
:1037e80084282000432820002228200001282000c7
:1037f80060bf2000030007008f87e9000080fa00ff
:10380800000006001000fa00000f78001107980069
:103818002207980033079800440798005507980036
:10382800464f9800770798001e0078009e00900089
:10383800010878001e007800ae0090001100980082
:103848001e007800be009000210098001e0078003d
:10385800ce009000310098001e007800de00900035
:10386800410098001e007800ce489000214898003a
:103878001e007800fe009000610098001e0078008d
:10388800ceb89700710098001e0078008000eb0009
:10389800010898001e0078008000eb0011089800cd
:1038a8001e0078008000eb00210898000080fa00d4
:1038b800000006001a00fa00881f780060079800c8
:1038c80071079800020f9800130f9800240f9800b2
:1038d800350f9800065f9800001020002007980018
:1038e8000000eb0030079800001420004007980003
:1038f80000042000500798007e00900060009000af
:10390800e10f4000360132000e0890006000900080
:10391800e10f4000340132001e0890006000900062
:10392800e10f4000320132007e0090000008900054
:103938000000e00097003a000e0890000008900090
:103948000000e00093003a001e0890000008900074
:103958000000e0008f003a007e0090006603070038
:103968000e0890008b0307000e089000e60307007e
:103978001e089000870307001e089000f703070041
:103988006e009000fe009000010898007e009000f4
:10399800ee009000010898007e0090008000eb0087
:1039a800110898007e0090008000eb002108980024
:1039b8006e0090008e089000110898000e08900084
:1039c800ee009000010898000e0890008000eb00bf
:1039d800110898000e0890008000eb00210898005c
:1039e8006e0090009e089000210898001e08900024
:1039f800ee009000010898001e0890008000eb007f
:103a0800110898001e0890008000eb00210898001b
:103a1800113a8000f00b2000008160006004200053
:103a280071052000237420008049780081497800be
:103a3800824978006e00900040009000ee009000ef
:103a4800c100900011017800ee009000a14890009c
:103a58008180fb00f30320008118dd008180ea00eb
:103a680081006100010878006e009000400090001d
:103a7800ee009000c100900011017800fe00900057
:103a8800e1019000ee009000a14890008180fb00c9
:103a98008118dd0082807000010878000e0890000f
:103aa800700090008e089000f100900011017800dd
:103ab8008e089000a14890008180fb00f30320004d
:103ac8008118dd008180ea0081006100010878002a
:103ad8000e089000700090008e089000f100900091
:103ae80011017800ee009000e10190008e0890002e
:103af800a14890008180fb008118dd008280700061
:103b0800010878001e089000700090009e08900040
:103b1800f1009000110178009e089000a1489000e3
:103b28008180fb00f30320008118dd008180ea001a
:103b380081006100010878001e0890007000900064
:103b48009e089000f100900011017800ee009000ae
:103b5800f10190009e089000a14890008180fb0030
:103b68008118dd008280700001087800103a80001a
:103b7800000178000260a0006004200071052000a8
:103b880023742000804978008149780082497800b0
:103b98000f0037006e009000800890007e009000b3
:103ba800808f500094003a006e00900090089000ba
:103bb8000e089000808f500091003a006e0090002f
:103bc800a00890001e089000808f50008e003a00d8
:103bd80018c0b3000240220043af24002e08900012
:103be800be089000cbfa07000000e00001003c008e
:103bf8000044eb000804e00004003200004022000a
:103c080041af2400200f9800310f980018c0b3006e
:103c180002402200436f24002e089000be08900046
:103c2800bafa07000000e000010035000044eb008c
:103c38000804e0000400320000402200416f240024
:103c4800200f9800310f980018c0b30002402200de
:103c5800437f24002e089000be089000abfa0700ae
:103c68000000e000010034000044eb000804e0001c
:103c78000a00320002002000032824002e089000c9
:103c8800be08900015fb0700200f9800310f980020
:103c98000000eb00000f78002c00370018c0b300bc
:103ca80002402200438f24002e089000be08900096
:103cb80096fa07000000e000010034000044eb0021
:103cc8000804e0000a003200020020000318240063
:103cd8002e089000be08900000fb0700200f9800f7
:103ce800310f980010002000000f780017003700ef
:103cf80018c0b30002402200439f24002e08900001
:103d0800be08900081fa07000000e00001003400be
:103d18000044eb000804e0000a0032000200200022
:103d2800030824002e089000be089000ebfa070054
:103d3800200f9800310f980020002000000f780015
:103d48000200370030002000000f78002e09900094
:103d5800be0990000040220041b7240029fa07005c
:103d68000200200003f02300c9f907006bfa0700de
:103d7800100798001e009000680010004200dd0047
:103d8800100798006e009000900090000e58900068
:103d98000080fb00630060000000400064014700f1
:103da80000004100100078001e0170001e00900005
:103db800020070000050a000800878006e0090009b
:103dc800200090008000eb00010878006e00900051
:103dd8001000780001002800010878000b00370067
:103de800000000000900370000000000070037004d
:103df8000000000005003700000000000300370045
:103e08000000000001003700000000004f047800a7
:103e18000080fa00000006000200fa00000f780097
:103e28001e007800100078008000eb000108780080
:103e38001e007800100090008000eb000108780058
:103e48001e007800200090008000eb000108780038
:103e58001e007800000890000000e00028003200f2
:103e6800113a8000f00b20000081600060042000ff
:103e7800710520002374200080497800814978006a
:103e8800824978001e007800400090009e0078006b
:103e9800c1009000110178009e007800a1489000b0
:103ea8008180fb00f30320008118dd008280700010
:103eb80001087800103a8000000178000260a00034
:103ec80060042000710520002374200080497800d8
:103ed80081497800824978001e0078000008900027
:103ee8008000eb00010898001e0078000008900090
:103ef800010207001e0078008000eb00010898000e
:103f08001e007800100890000000e0002f0032002a
:103f1800113a8000f00b200000816000600420004e
:103f280071052000237420008049780081497800b9
:103f3800824978001e0078001008900070009000f8
:103f48009e00780091089000f1009000110178001f
:103f58009e00780091089000a14890008180fb00a5
:103f6800f30320008118dd008180ea0081006100f0
:103f780001087800103a8000000178000260a00073
:103f88006004200071052000237420008049780017
:103f980081497800824978001e0078001008900056
:103fa8008000eb00010898001e00780010089000bf
:103fb800f80107001e007800100890005202070060
:103fc8001e0078008000eb00110898001e007800a1
:103fd800200890000000e0002f003200113a800015
:103fe800f00b2000008160006004200071052000b3
:103ff800237420008049780081497800824978003c
:104008001e00780020089000700090009e00780044
:10401800a1089000f1009000110178009e0078003e
:10402800a1089000a14890008180fb00f3032000c4
:104038008118dd008180ea008100610001087800b4
:10404800103a8000000178000260a000600420009f
:104058007105200023742000804978008149780088
:10406800824978001e007800200890008000eb004c
:10407800010898001e00780020089000c50107007c
:104088001e00780020089000340207001e00780007
:104098008000eb00210898000080fa00000006006c
:1040a8000400fa00000f7800214798001e007800ed
:1040b80030009000ae4090008180fb00010878003d
:1040c800000000001e007800100078001000780042
:1040d800610060000000e000faff32001e00780076
:1040e8003000900010007800004078000080fa004e
:1040f800000006000400fa00000f7800110798007d
:104108001e0090000000e0000d0032001e00780044
:10411800100078009e007800910078001101780066
:104128009e007800e14090008180fb001300200091
:104138008118dd0082807000010878000d003700ca
:104148001e007800100078009e007800910078002a
:10415800110178009e007800e14090008180fb000a
:10416800130020008118dd008180ea0081006100d1
:10417800010878000080fa00000006000200fa003a
:10418800000f78001e00780010007800900078007a
:104198001e007800604090000080fb0012002000a4
:1041a8000010dd000080600000f0a7000000ea00b9
:1041b8000000ea004f00de000080fa000000060060
:1041c8000200fa00000f78001e00780040009000fe
:1041d800401988002023a800000000000019800072
:1041e800610060000000e000fcff32000018800061
:1041f8000080fa00000006000200fa00406d20006e
:10420800801f7800470120000043eb008082eb000c
:1042180054c0b3008001eb00822d2000a12d2000a6
:1042280080872000080107008f87e900806d200043
:10423800801f78009701200086c0b3008082eb00c1
:1042480044c0b3008001eb00822d2000a12d200086
:10425800e0882000fc0007008f87e900a06c2000a0
:10426800801f7800a70020000043eb008082eb004d
:1042780044c0b3008001eb00822e2000a12e200054
:10428800408a2000f00007008f87e900006d2000b9
:10429800801f78001701200086c0b3008082eb00e1
:1042a80054c0b3008001eb00822e2000a12e200014
:1042b800a08b2000e40007008f87e900c06d200074
:1042c800801f7800d701200086c0b300f5002000c9
:1042d800f4c0b300234e2000822c2000a12c200023
:1042e800008d2000d80007008f87e900006d2000ae
:1042f800801f7800070120000043eb008082eb005c
:1043080034c0b3008001eb00822e2000a12e2000d3
:10431800608e2000cc0007008f87e900206c200009
:10432800801f7800270020000043eb008082eb000c
:1043380084c0b3008001eb00822d2000a12d200055
:10434800c08f2000c00007008f87e900c06c2000e4
:10435800801f7800c70020000043eb008082eb003c
:10436800b4c0b3008001eb00822d2000a12d2000f5
:1043780020912000b40007008f87e900406c2000de
:10438800801f7800470020000043eb008082eb008c
:1043980094c0b3008001eb00822d2000a12d2000e5
:1043a80080922000a80007008f87e900206c200079
:1043b800801f78003700200086c0b3008082eb00a1
:1043c800a4c0b3008001eb00822d2000a12d2000a5
:1043d800e09320009c0007008f87e900a06c200074
:1043e800801f7800b700200086c0b3008082eb00f1
:1043f8000042eb008001eb00822d2000a12d20005f
:1044080040952000900007008f87e900806d20000c
:10441800801f7800870120000043eb008082eb00ba
:1044280014c0b3008001eb00822d2000a12d2000d4
:10443800a0962000840007008f87e900606d2000a7
:10444800801f78007701200086c0b3008082eb00cf
:1044580024c0b3008001eb00822d2000a12d200094
:1044680000982000780007008f87e900606d200021
:10447800801f7800670120000043eb008082eb007a
:1044880034c0b3008001eb00822d2000a12d200054
:10449800609920006c0007008f87e900006c2000fd
:1044a800801f78008003eb000043eb008002eb00e4
:1044b8000042eb00234e2000822c2000a12c20007b
:1044c800a0a12000600007008f87e900006c200091
:1044d800801f78001700200086c0b3001500200058
:1044e80014c0b300234e2000822c2000a12c2000f1
:1044f80040a02000540007008f87e900c06c20000e
:10450800801f7800d700200086c0b3002500200057
:1045180024c0b300234e2000822c2000a12c2000b0
:10452800e09e2000480007008f87e9000000eb00ac
:10453800801f78008083eb000043eb0035002000eb
:1045480034c0b300234e2000822c2000a12c200070
:10455800809d20003c0007008f87e900c06d200087
:10456800801f7800c70120000043eb0045002000b1
:1045780044c0b300234e2000822c2000a12c200030
:10458800209c2000300007008f87e900206d200064
:10459800801f7800270120000043eb005500200011
:1045a80054c0b300234e2000822c2000a12c2000f0
:1045b800c09a2000240007008f87e9000000eb0064
:1045c800000f7800070037001e0078007600b90059
:1045d80080007800808720000080400046000700a7
:1045e8001e0fe8001e007800ed0f5000f6ff3600a1
:1045f8000000eb00000f7800070037001e0078006d
:104608007600b90080007800c09a20000080400041
:10461800950007001e0fe8001e007800e50f500007
:10462800f6ff3600002e2000001988002223ef0034
:1046380000c42000201988002823ef0021e3a800e7
:104648000080fa00000006001000fa00000f780051
:10465800110798002207980033079800044f980024
:1046680055079800464f9800770798001e00780075
:104678009e009000010878001e007800ae009000af
:10468800110098001e007800be00900021009800dc
:104698001e0078008e489000614098001e00780047
:1046a800de009000410098001e007800ce4890007f
:1046b80021489800fe0090001e00780061009800d4
:1046c8001e007800ceb89700710098001e00780090
:1046d8008000eb00010898001e0078008000eb00c5
:1046e800110898001e0078008000eb00210898004f
:1046f8000080fa00000006000200fa00000f7800af
:104708001e007800200090000000e0000d0032003c
:104718001e007800200090009e007800a100900004
:10472800110178009e007800e14090008180fb0034
:10473800130020008118dd008180ea0081006100fb
:10474800010878001e007800100090009e00780094
:1047580091009000110178009e007800e1409000df
:104768008180fb00130020008118dd00828070002a
:10477800010878001e0078008000eb0011089800fe
:104788001e007800210c2200210898000080fa0001
:10479800000006000200fa00000f78001e007800f2
:1047a800200090000000e0000d0032001e0078009c
:1047b800200090009e007800a10090001101780070
:1047c8009e007800e14090008180fb0013002000eb
:1047d8008118dd008180ea0081006100010878000d
:1047e8001e007800100078009e0078009100780084
:1047f800110178009e007800e14090008180fb0064
:10480800130020008118dd008180ea00810061002a
:10481800010878001e007800100090009e007800c3
:1048280091009000110178009e007800e14090000e
:104838008180fb00130020008118dd008180ea00e0
:1048480081006100010878001e007800e10722005d
:10485800110898001e007800210c220021089800f9
:104868000080fa00000006000200fa00000f78003d
:104878001e007800200090000000e0001f003200b9
:104888001e007800100090009e00780091009000b3
:10489800110178009e007800e14090008180fb00c3
:1048a800130020008118dd00828070000108780064
:1048b8001e007800200090009e007800a100900063
:1048c800110178009e007800e14090008180fb0093
:1048d800130020008118dd00828070000108780034
:1048e8001e0078008000eb00110898001e00780078
:1048f800410e220021089800010037000000000046
:104908000080fa00000006000200fa00000f78009c
:104918001e00780090089000e0072200808f500069
:104928000c003a001e007800100078009e00780005
:1049380091007800110178009e007800e140900015
:104948008180fb00130020008118dd008280700048
:10495800010878000080fa00000006000200fa0052
:10496800000f78001e00780090089000e0072200f1
:10497800808f50000d003a001e007800100078006b
:104988009e00780091007800110178009e00780060
:10499800e14090008180fb00130020008118dd00b9
:1049a8008180ea0081006100010878000080fa0037
:1049b800000006000200fa00000f78001e007800d0
:1049c80090089000e0072200808f50000c003a0009
:1049d8001e007800100078009e0078009100780092
:1049e800110178009e007800e14090008180fb0072
:1049f800130020008118dd0081006900010878009b
:104a08000080fa00000006000400fa00000f780099
:104a1800110798001e007800100890000000e000c0
:104a2800050032001e007800100990009e009000da
:104a38001e007800020001000080fa000000060055
:104a48000200fa00000f78001e007800200890008d
:104a58000000e000050032001e007800a008900069
:104a68001e00780001000100010037000080eb0003
:104a78000080fa00000006000800fa0030079800dd
:104a88003e00900000089000000f78000000eb0046
:104a9800100798001e007800300090001000780081
:104aa800200798001e029000ae0290001e007800b9
:104ab80020009000100078008000eb000001be008c
:104ac8000400be00b9f70700000078000080fa0073
:104ad800000006000a00fa00300798004107980015
:104ae8003e00900000089000000f78004e009000f3
:104af8006101b8001e0078002000900010007800c6
:104b08008000eb00009ab90004027800028bb9001b
:104b180086027800050242000010b8000102420037
:104b28008400780010079800210798001e0078007c
:104b380030009000ae009000010878000080fa0074
:104b4800000006000800fa00300798003e009000b8
:104b580000089000000f78000000eb001007980094
:104b68001e00780020009000900078001e00780059
:104b78006000900000805000200798001e029000fe
:104b8800ae0290001e007800700090008000eb00dc
:104b98000001be000400be0084f707000000780092
:104ba8000080fa00000006000a00fa0030079800aa
:104bb800410798003e00900000089000000f780020
:104bc8004e0090006101b8001e007800700090004f
:104bd8008000eb00009ab90004027800028bb9004b
:104be80086027800050242000010b8000102420067
:104bf8008400780010079800210798001e007800ac
:104c0800200090009e00780061019000ae009000a6
:104c180081004100010878000080fa0000000600c9
:104c28000000fa00260120008519200064192000e0
:104c380043192000221920000119200000a3200098
:104c48004200070036012000251a2000041a20001f
:104c5800e3192000c2192000a119200020a4200077
:104c68003a00070046012000c51a2000a41a2000b7
:104c7800831a2000621a2000411a200040a5200053
:104c88003200070056012000651b2000441b20004d
:104c9800231b2000021b2000e11a200060a6200030
:104ca8002a00070066012000051c2000e41b2000e4
:104cb800c31b2000a21b2000811b200080a720000e
:104cc8002200070076012000a51c2000841c20007b
:104cd800631c2000421c2000211c2000a0a82000ea
:104ce8001a00070086012000451d2000241d200011
:104cf800031d2000e21c2000c11c2000c0a92000c8
:104d08001200070096012000e51d2000c41d2000a8
:104d1800a31d2000821d2000611d2000e0aa2000a4
:104d28000a00070036022000851e2000641e2000ad
:104d3800431e2000221e2000011e200000ac20007f
:104d4800020007000080fa00000006000e00fa00ca
:104d5800000f780011079800220798003307980081
:104d68004407980055079800660798001e007800c9
:104d78009e009000010878001e007800ae009000a8
:104d8800110098001e007800be00900021009800d5
:104d98001e007800ce009000310098001e007800b8
:104da800de009000410098001e00780001e8230012
:104db800610098001e00780001e823007100980047
:104dc8001e007800ee009000510098001e00780048
:104dd8008000eb00010898000080fa00000006003f
:104de8000200fa00000f78001e007800100078001a
:104df8008000eb00010878001e0078001000900089
:104e08008000eb00010878001e0078000008900080
:104e18000000e0002f003200113a8000f00b200063
:104e280000816000600420007105200023742000c8
:104e38008049780081497800824978001e0078000e
:104e480000089000700090009e0078008108900093
:104e5800f1009000110178009e0078008108900010
:104e6800a14890008180fb00f30320008118dd0039
:104e78008180ea008100610001087800103a800012
:104e8800000178000260a000600420007105200085
:104e9800237420008049780081497800824978008d
:104ea8001e007800000890008000eb0001089800c0
:104eb8001e0078000008900036fe07001e007800eb
:104ec80000089000a5fe07001e0078008000eb0097
:104ed800010898000080fa00000006001000fa009f
:104ee800881f78002007980031079800420798002b
:104ef8005407980065079800730798003e009000d3
:104f080060009000e10f40009c0032003e009000dd
:104f1800000890000000e00033003a002e009000e6
:104f2800be009000010898003e009000ae0090007e
:104f380001089800113a8000f00b20000081600001
:104f48006004200071052000237420008049780047
:104f580081497800824978003e00900070009000f6
:104f6800be009000f100900011017800be00900092
:104f7800a14890008180fb00f30320008118dd0028
:104f88008180ea0081006100010878003e009000fd
:104f980070009000be009000f100900011017800b0
:104fa800ae009000d1019000be009000a148900092
:104fb8008180fb008118dd00828070000108780084
:104fc800103a8000000178000260a0006004200010
:104fd80071052000237420008049780081497800f9
:104fe80082497800050037003e0090008008900054
:104ff8002e009000808f500062003a004e00900012
:105008000000e0001c0032002e0090001000780024
:10501800ce009000e1009000ca08dd006100b300f6
:10502800010878002e00900010009000f101200087
:10503800010878005e019000ee0190004e0090009b
:10504800e4f807002e00900020009000ce009000a9
:105058009100900091007800010878002e009000df
:10506800400090008000eb00010878004e0090009e
:105078000df90700250037002e0090001000780079
:1050880061c02100010878002e00900010009000f7
:10509800f10120000108780018c0b3000240220086
:1050a800433724005e009000ee00900097f507005b
:1050b8000000e000010035000044eb000804e000b7
:1050c800050032002e009000200090008080eb0048
:1050d800010878000d0037002e0090002004900091
:1050e8005e019000ee0190000040220041b72400cc
:1050f80044f507000200200003f82300e3f407004a
:1051080086f5070000007800000c78007e0090000b
:105118006101b8002e009000200090001000780077
:105128008000eb00009ab90004027800028bb900f5
:1051380086027800050242000010b8000102420011
:1051480084007800008fbe002e0090003000900090
:105158009e009000010878002e0090000008900042
:10516800e1562200110898002e00900000089000d7
:1051780001542200210898000300370000000000b5
:1051880001003700000000004f0478000080fa009a
:10519800000006001400fa00200798003107980064
:1051a800420798005407980065079800760798000a
:1051b800070f9800130f98003e00900060009000c1
:1051c800e10f4000860032003e0090000008900089
:1051d8000000e00033003a002e009000be0090006e
:1051e800010898003e009000ae0090000108980069
:1051f800113a8000f00b200000816000600420005c
:1052080071052000237420008049780081497800c6
:10521800824978003e00900070009000be00900027
:10522800f100900011017800be009000a1489000a4
:105238008180fb00f30320008118dd008180ea00f3
:1052480081006100010878003e0090007000900025
:10525800be009000f100900011017800ae009000af
:10526800d1019000be009000a14890008180fb0011
:105278008118dd008280700001087800103a8000f3
:10528800000178000260a000600420007105200081
:105298002374200080497800814978008249780089
:1052a800050037003e009000800890002e00900016
:1052b800808f50004c003a004e0090000000e00043
:1052c8004a0032000240220043b724007e009000ca
:1052d8008e08900081f5070010f50700800078001f
:1052e8002e009000610098007e0190008e099000c9
:1052f8003eb89700ceb8970064f407000240220039
:1053080043b7240075f5070004f50700800078000e
:105318002e009000710098002e0090001000780078
:10532800f1c02100010878002e00900010009000c4
:10533800ce009000f10090000170a00001087800f4
:105348002e00900030009000110020000108780025
:105358001e0890006101b8002e00900070009000b7
:105368008000eb00009ab90004027800028bb900b3
:1053780086027800050242000010b80001024200cf
:1053880084007800008fbe002e009000200090005e
:10539800ae009000610190009e00900081004100e5
:1053a800010878005e019000ee0190004e00900028
:1053b8006ef707004e0090003bf807002e009000a3
:1053c80000089000815d2200110898002e009000ce
:1053d80000089000615a2200210898000300370055
:1053e8000000000001003700000000000080fa0003
:1053f800000006000400fa00004f780011479800ea
:10540800120798001e00900054fd070001c4b30065
:10541800a0bc200022fb07009e407800a0bc200012
:105428001ffb07009e409000a0bc20001cfb07004b
:105438001e00900034fd07000080fa0000000600fe
:105448000600fa0020479800210798002e009000d7
:1054580042fd070011c4b300a0bc200010fb0700e8
:10546800ae409000a0bc20000dfb07008040eb0080
:10547800a0bc20000afb0700004f78002e00900017
:1054880021fd07001e4078000080fa000000060099
:105498000400fa00100798000000eb00eef3070084
:1054a800e3f507009bf50700810020000101780063
:1054b800110009000200d8008000fd00000f7800ec
:1054c800110020001e0078008008dd001e009000fa
:1054d8000100700030428800304280000080fa00ed
:1054e800000006000200fa0000102000203a8800a0
:1054f8003a01070040fb07009bf80700b0f60700d9
:105508008087200000408800e08820001040880044
:10551800408a200020408800a08b2000304088006e
:10552800008d200040408800608e20005040880098
:10553800c08f2000604088002091200070408800c3
:105548004040800093fc07005040800091fc070019
:10555800604080008ffc0700704080008dfc0700d1
:1055680040408000e8fc070050408000e6fc07004f
:1055780060408000e4fc070070408000e2fc070007
:1055880002408000214080001040800016c0b30017
:105598000468290085b1240082017800010178009f
:1055a80080007800a0bc2000c2f8070030408000ce
:1055b800eafc070040408000000178008040eb00d2
:1055c800a0c0b3008bff07004040800000017800b6
:1055d8008040eb00b0c0b30086ff07004040800069
:1055e800000178008040eb000040eb0081ff0700dd
:1055f80040408000000178008040eb0010c0b300fc
:105608007cff070050408000000178008040eb00dc
:10561800a0c0b30077ff0700504080000001780069
:105628008040eb00b0c0b30072ff0700504080001c
:10563800000178008040eb000040eb006dff0700a0
:1056480050408000000178008040eb0010c0b3009b
:1056580068ff070060408000000178008040eb0090
:10566800a0c0b30063ff070060408000000178001d
:105678008040eb00b0c0b3005eff070060408000d0
:10568800000178008040eb000040eb0059ff070064
:1056980060408000000178008040eb0010c0b3003b
:1056a80054ff070070408000000178008040eb0044
:1056b800a0c0b3004fff07007040800000017800d1
:1056c8008040eb00b0c0b3004aff07007040800084
:1056d800000178008040eb000040eb0045ff070028
:1056e80070408000000178008040eb0010c0b300db
:1056f80040ff0700a2702d0033c2230020b720000e
:105708009af6070020b7200067f70700020020007c
:1057180003f8230080b8200094f6070080b8200022
:1057280061f7070000418000104188002041800097
:1057380030418800c0418000e0418800d0418000ad
:10574800f041880020b7200075f707000000e0004e
:105758005200320020b7200082f707008040800006
:1057680090408800c0408000d040880040418000c0
:10577800504188008041800090418800404080006e
:105788008000780020c1b3002dff07000080fb00d7
:1057980080408800404080008000780030c1b3001d
:1057a80027ff07000080fb00c040880060408000a1
:1057b8008000780020c1b30021ff07000080fb00b3
:1057c80040418800604080008000780030c1b3000c
:1057d8001bff07000080fb0080418800814080009b
:1057e8009040800000806800a0408800c140800090
:1057f800d040800000806800e0408800414180007f
:10580800504180000080680060418800814180002c
:105818009041800000806800a0418800a14080007d
:105828008040800000806000b0408800e140800037
:10583800c040800000806000f04088006141800026
:10584800404180000080600070418800a1418000d4
:105858008041800000806000b041880001418000e4
:10586800704180000080680000418800214180006c
:10587800b04180000080680020418800c14180005c
:10588800b040800000806800c0418800d14180009d
:10589800f040800000806800d041880080b8200077
:1058a8001ff707000000e0002f00320080b820003a
:1058b8002cf707000000eb00e7f20700dcf4070014
:1058c80094f407004100200001017800110009004c
:1058d8000200d8008000fd00000f78001e0078004c
:1058e8000000e00006003a0000418000e8fe0700e2
:1058f8000041880080842000bb0007001a003700a0
:105908001e007800e10f500006003a002041800098
:10591800dffe07002041880080852000b2000700d4
:10592800110037001e007800e20f500006003a0010
:10593800c0418000d6fe0700c041880000852000d5
:10594800a9000700080037001e007800e30f500088
:1059580005003a00d0418000cdfe0700d041880004
:1059680080852000a0000700514080000041800091
:1059780000407800010178008040780040c1b30001
:105988009cfe0700514080002041800000407800c4
:10599800010178008040780050c1b30095fe0700ef
:1059a80071408000c041800000407800010178000b
:1059b8008040780040c1b3008efe0700714080002f
:1059c800d0418000004078000101780080407800d4
:1059d80050c1b30087fe070052ff37000000fa00ed
:1059e80074c0b300634e2000822d2000a12d20003a
:1059f80080842000200007000042eb00a34e200016
:105a0800822e2000a12e2000008520001a00070009
:105a180014c0b300a34e2000822e2000a12e200027
:105a28008085200014000700f4c0b300434e200016
:105a3800022d2000212d200000862000ad00070047
:105a4800c4c0b300434e2000022d2000212d2000a9
:105a580080862000a7000700c4c0b300234e2000a2
:105a6800822c2000a12c200000872000a100070024
:105a78000080fa00000006000a00fa00000f780013
:105a8800110798002207980033079800044f9800e0
:105a98001e0078009e009000010878001e00780023
:105aa800ae009000110098001e007800be00900023
:105ab800210098001e0078008e48900061409800f0
:105ac8001e007800200090009e007800a100900041
:105ad800110178009e007800e14090008180fb0071
:105ae800130020008118dd008180ea008100610038
:105af800010878001e007800100078009e007800e9
:105b080091007800110178009e007800e140900033
:105b18008180fb00130020008118dd008180ea00ed
:105b280081006100010878001e00780010009000d4
:105b38009e00780091009000110178009e00780086
:105b4800e14090008180fb00130020008118dd00f7
:105b58008180ea0081006100010878000080fa0075
:105b6800000006000200fa00000f78001e0078000e
:105b7800100078009e0078009100780011017800ec
:105b88009e007800e14090008180fb001300200017
:105b98008118dd0082807000010878000080fa001a
:105ba800000006000200fa00000f78001e007800ce
:105bb800100078009e0078009100780011017800ac
:105bc8009e007800e14090008180fb0013002000d7
:105bd8008118dd008180ea008100610001087800f9
:105be8000080fa00000006000200fa00000f7800aa
:105bf8001e007800100078009e0078009100780060
:105c0800110178009e007800e14090008180fb003f
:105c1800130020008118dd00810069000108780068
:105c28000080fa00000006000400fa00000f780067
:105c3800110798001e0090000000e0000d003200df
:105c48001e007800100078009e007800910078000f
:105c5800110178009e007800e14090008180fb00ef
:105c6800130020008118dd00828070000108780090
:105c78000d0037001e007800100078009e007800a4
:105c880091007800110178009e007800e1409000b2
:105c98008180fb00130020008118dd008180ea006c
:105ca80081006100010878000080fa000000060009
:105cb8000200fa00000f78001e007800100078003b
:105cc800900078001e007800604090000080fb0083
:105cd800120020000010dd000080600000f0a70026
:105ce8000000ea000000ea004f00de000080fa0031
:105cf800000006000a00fa00000f7800110798005b
:105d08002207980033079800044f98001e00780077
:105d18009e009000010878001e007800ae009000f8
:105d2800110098001e007800be0090002100980025
:105d38001e0078008e489000614098001e00780090
:105d4800200090009e007800a100900011017800ca
:105d58009e007800e14090008180fb001300200045
:105d68008118dd008180ea00810061000108780067
:105d78001e007800100090009e00780091009000ae
:105d8800110178009e007800e14090008180fb00be
:105d9800130020008118dd0082807000010878005f
:105da8000080fa00000006000200fa00000f7800e8
:105db8001e00780010007800900078001e0078001f
:105dc800604090000080fb00120020000010dd0001
:105dd8000080600000f0a7000000ea000000ea0070
:0c5de8004f00de000080fa000000060002
:020000040000fa
:105df400000800004800000080000000480800007f
:105e0400300000008000000078080000b8010000a5
:105e140080000000ca0b0000420000008000000067
:105e24000c0c00001000000082000000bd3786004a
:105e340033bd37000635bd0037863600bd378600d2
:105e4400370000005c0b00006e00000080000000c2
:105e5400300a0000a2000000800000001c0c0000ba
:105e640004000000820000000100000000000000a7
:105e7400d20a00008a000000800000000000000038
:020000040000fa
:105e84000200fa00000f78001e0078004800de00cf
:105e94001e0f68001e0078004400de001e0f68001c
:105ea4001e0078004200de001e0f68001e0078000d
:105eb4000000d1001e0f68001e007800004078002a
:0c5ec400614060000080fa000000060051
:020000040000fa
:085ed0000040da000000fe00b2
:00000001FF
