:020000040000fa
:04025c00a63a0000be
:020000040000fa
:04021000a63a00000a
:020000040000fa
:04027400a63a0000a6
:020000040000fa
:04033400a63a0000e5
:020000040000fa
:04035c00a63a0000bd
:020000040000fa
:04027000a63a0000aa
:020000040000fa
:04022c00a63a0000ee
:020000040000fa
:04023c00a63a0000de
:020000040000fa
:0402bc00a63a00005e
:020000040000fa
:0402c000a63a00005a
:020000040000fa
:0402c400a63a000056
:020000040000fa
:0402c800a63a000052
:020000040000fa
:04028000a63a00009a
:020000040000fa
:04028400a63a000096
:020000040000fa
:04039c00a63a00007d
:020000040000fa
:04022800a63a0000f2
:020000040000fa
:04027800a63a0000a2
:020000040000fa
:04029c00a63a00007e
:020000040000fa
:0402fc00a63a00001e
:020000040000fa
:04030000a63a000019
:020000040000fa
:04026000a63a0000ba
:020000040000fa
:04026400a63a0000b6
:020000040000fa
:04027c00a63a00009e
:020000040000fa
:04028800a63a000092
:020000040000fa
:0402b000a63a00006a
:020000040000fa
:0402b400a63a000066
:020000040000fa
:0402b800a63a000062
:020000040000fa
:04023800a63a0000e2
:020000040000fa
:0402e000a63a00003a
:020000040000fa
:0402e400a63a000036
:020000040000fa
:0402e800a63a000032
:020000040000fa
:0402f400a63a000026
:020000040000fa
:0402f800a63a000022
:020000040000fa
:04030400a63a000015
:020000040000fa
:04030800a63a000011
:020000040000fa
:04030c00a63a00000d
:020000040000fa
:04031000a63a000009
:020000040000fa
:04031400a63a000005
:020000040000fa
:04031800a63a000001
:020000040000fa
:04031c00a63a0000fd
:020000040000fa
:04032400a63a0000f5
:020000040000fa
:04032800a63a0000f1
:020000040000fa
:04033800a63a0000e1
:020000040000fa
:04033c00a63a0000dd
:020000040000fa
:04034000a63a0000d9
:020000040000fa
:04034400a63a0000d5
:020000040000fa
:04034c00a63a0000cd
:020000040000fa
:04035000a63a0000c9
:020000040000fa
:04035400a63a0000c5
:020000040000fa
:04035800a63a0000c1
:020000040000fa
:04036000a63a0000b9
:020000040000fa
:04036400a63a0000b5
:020000040000fa
:04036800a63a0000b1
:020000040000fa
:04034800a63a0000d1
:020000040000fa
:04026c00a63a0000ae
:020000040000fa
:0402f000a63a00002a
:020000040000fa
:04037c00a63a00009d
:020000040000fa
:04021800a63a000002
:020000040000fa
:04023000a63a0000ea
:020000040000fa
:04024000a63a0000da
:020000040000fa
:04028c00a63a00008e
:020000040000fa
:04029000a63a00008a
:020000040000fa
:0402cc00a63a00004e
:020000040000fa
:0402d000a63a00004a
:020000040000fa
:0402d400a63a000046
:020000040000fa
:0402d800a63a000042
:020000040000fa
:04039800a63a000081
:020000040000fa
:04020c00a63a00000e
:020000040000fa
:0402dc00a63a00003e
:020000040000fa
:04032000a63a0000f9
:020000040000fa
:04020800a63a000012
:020000040000fa
:04021c00a63a0000fe
:020000040000fa
:04022000a63a0000fa
:020000040000fa
:04022400a63a0000f6
:020000040000fa
:04026800a63a0000b2
:020000040000fa
:0402ec00a63a00002e
:020000040000fa
:04037800a63a0000a1
:020000040000fa
:04024c00a63a0000ce
:020000040000fa
:04025000a63a0000ca
:020000040000fa
:0402a800a63a000072
:020000040000fa
:0402ac00a63a00006e
:020000040000fa
:04039000a63a000089
:020000040000fa
:04039400a63a000085
:020000040000fa
:04021400a63a000006
:020000040000fa
:04023400a63a0000e6
:020000040000fa
:04024400a63a0000d6
:020000040000fa
:04024800a63a0000d2
:020000040000fa
:04029400a63a000086
:020000040000fa
:04029800a63a000082
:020000040000fa
:04032c00a63a0000ed
:020000040000fa
:04025400a63a0000c6
:020000040000fa
:04025800a63a0000c2
:020000040000fa
:04033000a63a0000e9
:020000040000fa
:0402a000a63a00007a
:020000040000fa
:0402a400a63a000076
:020000040000fa
:04036c00a63a0000ad
:020000040000fa
:04037000a63a0000a9
:020000040000fa
:04037400a63a0000a5
:020000040000fa
:04038400a63a000095
:020000040000fa
:04038800a63a000091
:020000040000fa
:04038c00a63a00008d
:020000040000fa
:04038000a63a000099
:020000040000fa
:080000001011040000000000d3
:020000040000fa
:10222000cfc820000eff27000e018800000000002c
:10223000000020000000e000020032000001200049
:1022400020028800140007008d0007000000e00055
:1022500003003a0020a623000100200002003700fe
:102260000000200001002000810f700001003200fa
:1022700014000700000020000000e000020032000f
:10228000000002000000000072390200000000009f
:102290000040da000000fe004440a9006008200071
:1022a0000000e000030032000020200090018800c0
:1022b0004440a800000006008a1f78008b1f7800a9
:1022c00000000600a1028800800478000000eb00f6
:1022d0001f003700e284440054a0b4009905ba00fe
:1022e000e284440054a0b4009906ba00e284440099
:1022f00054a0b4000006eb00476fde00fd07b200fb
:10230000ae018800636ce10003003a00eaff0700b9
:102310000000eb000e003700606ce10008003a009e
:10232000004deb000a05e800020039003420ec0003
:102330000af0a0008b05e900f9ff3e000400370019
:102340006168e100010032000086eb000b0007002d
:1023500019c7ba001905ba000e04e00003003a00dc
:102360000a00e000dbff3a0000000600fe07b200b2
:10237000ae0288008a047800f5ff37000cd0a30075
:10238000e20f4d001c00390089027800354dba007b
:102390000a05e800020039003420ec000af0a00031
:1023a0008b05e9000f003200254dba000a05e80050
:1023b000020039003420ec000af0a0008b05e9008f
:1023c000080032000c00e0000600320015cdba0013
:1023d0000a05e800020039003420ec000af0a000f1
:1023e0008b05e9008984e80054a0b4000b00e000ec
:1023f000e2ff3a00000006009902ba00055d78008d
:102400008b05e900f7ff3200c82ade00055d780081
:102410008b05e900f3ff32000c00e000f1ff320011
:1024200019ddba00eeff3700e82d040000000000bf
:10243000a42d0400000000000a2e0400000000008b
:102440000c160400000000004e16040000000000fe
:1024500030160400000000004217040000000000d5
:102460009432040000000000663204000000000006
:10247000fe32040000000000cc3204000000000026
:102480000000050003f0a200889fbe008a9fbe00e6
:102490008c1f7800f7000700fe0033006450e10055
:1024a0004f0032006420e1005200320003826c00d1
:1024b00007003b000905d0000306d000820f54003e
:1024c0000c065d000200390002003200890178002c
:1024d000030678008582550004003d000003fd00de
:1024e0008103fd008502ea008b854200840f7200a3
:1024f00002003b0060001000e08018006011b8008e
:102500000005eb007a28e1000a0039000600780097
:10251000c75ddd00f707b200878075002d0037002a
:10252000828171000a017800610560008180d1001c
:102530000080d3008502e900f9ff3b00060440005b
:102540008784480002003b0060041400e0841c0003
:102550000988a300070032008a817100828171001e
:10256000610164008904d1000884d3008b05e80070
:10257000170037000978a30013003a000b00e000b1
:10258000130034008b05e9000804440089844c00e2
:102590000a4474000978a3000d003a000b00e00023
:1025a000070034008b05e9000804440089844c00ce
:1025b00001003a000b0020000978a300f7ff320069
:1025c0000001eb0002003700828171000a017800ef
:1025d0006d0007000cf0a70001f0a000b600370066
:1025e0006420e10002003a00838f6c00b6003300e3
:1025f0000801be000200be00af003700889fbe0089
:102600008a9fbe008c1f78009a000700a10033004b
:1026100003866c006450e1002e0032006420e1006b
:10262000330032006150e1002f0032006120e100f0
:102630003100320085855500eb07b000090020000d
:1026400008042000050037000804440089844c0079
:102650000a0031000603430087834b00000153004a
:1026600081815b00f8ff33000203be000800a00078
:102670000804440089844c00f6ff3900c639dd00a7
:102680008301730001003200130020008904d1008f
:102690000884d3000998a300050032000800a700b1
:1026a0000300a0008904d1000884d3008b05e80052
:1026b0008904d1000884d3000001eb000281d2001c
:1026c0003100070001f0a1000cf0a70001f0a0000c
:1026d000790037006420e1007b0032000801be0071
:1026e0000200be00f7ff37006120e10076003200f3
:1026f0006000b800f3ff37000000200001f8270059
:10270000f0ff370014002000b6003700f4ff2f0060
:10271000b40037000001be00410007000470a700ac
:1027200003f0a10003f8a30013003a006509b1000b
:1027300010003200090035006928e1000200350070
:1027400001002800000005000000400081804800d2
:102750008502e900fcff3a0000000600f88f420005
:10276000050035008100d1000080d3008502e8001b
:10277000fcff3a00000006008000eb0000000500ae
:102780006011b800b2003700810020006180550060
:102790000b003d000b00200061fe2f000100e10056
:1027a0001d00340082817100610164008904d10040
:1027b0000884d3000000e800faff3a00710020000e
:1027c0006100640003007000020060000900320034
:1027d00061044400e0844c000988a5000500320033
:1027e0008b05e8006808e10002003a008904d10086
:1027f0000884d300f20f20000258e10005003d00dc
:10280000c75ddd00f907b200898075000800780017
:10281000000006000bf827008b0078000000050080
:10282000c70ade00f107b200f50fb200080032005f
:10283000e1cf4200020032000170a0002400050038
:10284000810f7000010032000408050044000500fb
:10285000810f700002003a00140005008502e900b3
:102860000000400081c04800fcff3b000170a00058
:10287000240005000004be00e9ff07000003be00bd
:102880000405be000200be00e5ff0700844f75008e
:10289000000006000200be006450e10005003600a2
:1028a0006420e100020036000968a30001003a003c
:1028b0000800be000160a0004f0678004f05be0072
:1028c0004f04be0000000600f0ff2f00f1ff2700bc
:1028d000f9ff3700889fbe008a9fbe008c1f7800da
:1028e000e4ff0700ebff330003866c006450e10057
:1028f000240032006420e100270032006150e10032
:10290000220032006120e100210032008b8542006c
:10291000eb07b1000134b800003ab80008044200e7
:1029200089844a00013ab8000030b800888040002d
:1029300009014a0004003300000040008180480083
:10294000020149008b05e900c909dd00830170001f
:102950000100320013002000c814de004814dd001e
:102960004709de001200b200c808de0008847000cb
:1029700085ff070001f0a1000cf0a70001f0a00006
:10298000cdff37006120e100cfff32000801be001b
:102990000200be00f7ff37006150e100fcff3a0083
:1029a000c9ff37006022b800060220000000d000f6
:1029b0008180d2000482d2008582d2000000a00073
:1029c0000202520083825a000300310002024200d8
:1029d00083824a000000a1000603e900f3ff3a00e9
:1029e00000000600889fbe008a9fbe00841f7800fa
:1029f000a0ff07004f00780011003300f0ff2f0008
:102a0000838f6c0006003b00040565000a00a700e8
:102a10000800370009f0a600100020000800370069
:102a2000820f5400838f5c000300390010002000e7
:102a300001003e000000200009f0a7000000ea00ad
:102a40004f05be004f04be000000e000000006007d
:102a5000889fbe008a9fbe00008270000402710041
:102a600004827100260032000004be000200be0095
:102a70006011b8006b092000950220000182cf0090
:102a80000a0039000541b1000082cf00070039007b
:102a90000541b1000982cf00040039000541b100b1
:102aa0000882cf00010039000541b1000542520003
:102ab000120032000a003b00828171006101640053
:102ac0008100d1000080d3008984d3000884d30022
:102ad0008b05e8000442e800f7ff3a0007003700e2
:102ae0000804440089844c000000480081804800ac
:102af0008b05e9000442e900f9ff3a0022ff0700d4
:0c2b00004f05be004f04be0000000600a0
:020000040000fa
:020000040002f8
:04aff400031c00003a
:020000040000fa
:020000040002f8
:04aff8000f890000bd
:020000040000fa
:020000040002f8
:04affc007f3e000094
:020000040000fa
:102000001011040000000000a63a040000000000c7
:10201000a63a040000000000a63a040000000000f8
:10202000a63a040000000000a63a040000000000e8
:10203000a63a040000000000a63a040000000000d8
:10204000a63a040000000000242404000000000060
:10205000a63a040000000000a63a040000000000b8
:10206000522404000000000080240400000000004e
:10207000a63a040000000000a63a04000000000098
:102080002e180400000000000018040000000000ea
:10209000a63a040000000000a63a04000000000078
:1020a000a63a040000000000a63a04000000000068
:1020b000a63a040000000000a63a04000000000058
:1020c000a63a040000000000a63a04000000000048
:1020d000a63a040000000000a63a04000000000038
:1020e000ae24040000000000dc2404000000000016
:1020f000a63a0400000000008a1804000000000056
:102100005c18040000000000a63a04000000000073
:10211000a63a040000000000a63a040000000000f7
:10212000a63a040000000000a63a040000000000e7
:10213000a63a040000000000a63a040000000000d7
:10214000a63a040000000000a63a040000000000c7
:10215000a63a040000000000a63a040000000000b7
:10216000a63a040000000000a63a040000000000a7
:10217000a63a040000000000a63a04000000000097
:10218000a63a040000000000a63a04000000000087
:10219000a63a040000000000a63a04000000000077
:1021a000a63a040000000000a63a04000000000067
:1021b000a63a040000000000e61804000000000039
:1021c000b818040000000000a63a04000000000057
:1021d000a63a040000000000a63a04000000000037
:1021e000a63a0400000000004219040000000000ac
:1021f0001419040000000000a63a040000000000ca
:10220000a63a040000000000a63a04000000000006
:10221000a63a040000000000a63a040000000000f6
:020000040000fa
:1000080004100000081000000c1000001010000080
:10001800141000000c1100000c1100000c1100005d
:10002800181000001c100000201000002410000010
:100038000c110000281000002c10000030100000e7
:1000480034100000381000003c1000004010000080
:1000580044100000481000000c1100000c110000b2
:100068004c10000050100000541000005810000000
:100078005c1000000c11000060100000641000000b
:100088000c110000681000006c10000070100000d7
:1000980074100000781000007c1000008010000030
:1000a80084100000881000000c1100000c110000e2
:1000b8000c1100008c10000090100000941000003b
:1000c800981000009c100000a0100000a410000070
:1000d800a8100000ac1000000c1100000c1100006a
:1000e8000c110000b0100000b41000000c1100004a
:1000f8000c110000b8100000bc1000000c1100002a
:100108000c1100000c1100000c1100000c11000073
:100118000c1100000c110000c01000000c110000b0
:100128000c110000c4100000c8100000cc10000022
:100138000c1100000c1100000c1100000c11000043
:10014800d01000000c1100000c1100000c11000070
:100158000c110000d41000000c1100000c1100005c
:100168000c110000d8100000dc100000e0100000a6
:10017800e4100000e8100000ec100000f01000008f
:10018800f4100000f8100000fc100000001100003e
:1001980004110000081100000c1100000c110000ef
:1001a8000c1100000c1100000c1100000c110000d3
:1001b8000c1100000c1100000c1100000c110000c3
:1001c8000c1100000c1100000c1100000c110000b3
:1001d8000c1100000c1100000c1100000c110000a3
:1001e8000c1100000c1100000c1100000c11000093
:0801f8000c1100000c110000c5
:020000040000fa
:102b0c001201000000020000000000000040000064
:102b1c0066660000030000000000000001020000d7
:102b2c000001000009020000120000000101000079
:102b3c0000a00000320900000400000000000000aa
:102b4c00ff000000ff000000040300000904000067
:102b5c001a0300004f0000006c0000006900000028
:102b6c006e00000020000000430000006f00000019
:102b7c006c0000006c0000006500000067000000a5
:102b8c006500000044030000450000006c000000dc
:102b9c006500000063000000610000006e00000092
:102bac0069000000730000006d000000730000005d
:102bbc00200000004d000000690000006e000000c5
:102bcc006900000070000000720000006f0000003f
:102bdc006a00000065000000630000007400000043
:102bec002000000032000000200000004600000021
:102bfc0069000000720000006d000000770000000a
:0c2c0c0061000000720000006500000084
:020000040000fa
:102c18000400fa00000f7800214798000000000027
:102c28001e0078001000900090007800002020001e
:102c3800008060000000e000f9ff3a001e00780004
:102c480020009000ae4090008180fb0001087800d1
:102c58000080fa00000006000200fa00000f780069
:102c6800000000001e00780010009000100078009e
:102c7800610060000000e000faff32001e007800ea
:102c88003000900010007800004078000080fa00c2
:102c9800000006000400fa00000f780021479800a1
:102ca800000000001e007800d01090001e00780080
:102cb80020109000808f5000faff3200ff3ffc0088
:102cc8001e007800901090001e00780040109000c0
:102cd80000804000ae409000014878001e00780057
:102ce800401090008000e8001e007800201090003e
:102cf80000017800110009008280d8008000fd00e2
:102d0800800078001e007800411098001e007800ae
:102d1800501090008000e8001e00780051109800c4
:102d28005220ef001e007800d01090001e0078009e
:102d380030189000808f5000070039001e0078007e
:102d4800100090009e00780091009000910078009b
:102d580001a0a000010878000080fa000000060029
:102d68000400fa00100798001e0090005000900020
:102d78009e009000d1009000110178009e00900004
:102d8800e14890008180fb00130020008118dd00dd
:102d98008180ea0081006100010878001e0090002f
:102da800501090000000e00026003a001e0090003d
:102db800100090009e009000910090009100780013
:102dc80001a0a100010878001f003700ff3ffc00a8
:102dd8001e009000901090001e009000301090008f
:102de80000804000104f78001e00900030109000c6
:102df8008000e8001e00900020109000000178007c
:102e0800110009008280d8008000fd008000780051
:102e18001e009000311098001e0090005010900085
:102e28008000e9001e009000511098005220ef0029
:102e38001e009000200090009e80fb000108780092
:102e480001003700000000001e00900010009000f4
:102e58009000780000202000008060000000e00062
:102e680004003a001e009000501090000000e0009e
:102e7800d6ff3a000080fa00000006000400fa00bd
:102e880010079800000000001e0090002018900015
:102e98000000e000fcff3200ff3ffc001e00900035
:102ea800e01090001e009000001890000080400084
:102eb800104f78001e009000001890008000e80075
:102ec8001e009000701090000001780011000900a9
:102ed8008280d8008000fd00800078001e009000ed
:102ee800011898001e009000201890008000e9004a
:102ef8001e009000211898005220ef001e40780014
:102f08000080fa00000006000200fa00000f7800b6
:102f18001e007800500090009e007800d1009000bc
:102f2800110178009e007800f14890008180fb0034
:102f3800130020008118dd008180ea008100610013
:102f4800010878001d003700ff3ffc001e007800d4
:102f5800e01090001e0078001018900000804000db
:102f68009e007800b10090009100780081407800c0
:102f7800014878001e007800101890008000e800d2
:102f88001e00780070109000000178001100090000
:102f98008280d8008000fd00800078001e00780044
:102fa800111898001e007800201890008000e80092
:102fb8001e007800211898005220ef001e007800ab
:102fc8001000900010007800610060000040780058
:102fd8000004e000060032001e007800a0189000ef
:102fe8001e00780070109000808f5000d6ff3a00c5
:102ff8000080fa00000006003600f800809fbe003e
:10300800829fbe00849fbe00869fbe003200f800eb
:103018003400f80010002000a001880000202000e3
:10302800900188000000fa00e0a020004cff070093
:103038000080fa003400f9003200f9004f03be00a6
:103048004f02be004f01be004f00be003600f9001f
:10305800004006003600f800809fbe00829fbe0038
:10306800849fbe00869fbe003200f8003400f8003e
:1030780010002000a0018800002020009001880096
:103088000000fa00e0a020009fff07000080fa007f
:103098003400f9003200f9004f03be004f02be00b1
:1030a8004f01be004f00be003600f9000040060088
:1030b8003600f800809fbe00829fbe00849fbe003d
:1030c800869fbe003200f8003400f800100020008f
:1030d800a001880000202000900188000000fa006c
:1030e800a0a420001eff07000080fa003400f900a9
:1030f8003200f9004f03be004f02be004f01be0070
:103108004f00be003600f900004006003600f80007
:10311800809fbe00829fbe00849fbe00869fbe0027
:103128003200f8003400f80010002000a0018800e8
:1031380000202000900188000000fa00a0a42000d0
:1031480071ff07000080fa003400f9003200f9002e
:103158004f03be004f02be004f01be004f00be002d
:103168003600f900004006003600f800809fbe00d7
:10317800829fbe00849fbe00869fbe003200f8007a
:103188003400f80010002000a00188000020200072
:10319800900188000000fa0060a82000f0fe0700f7
:1031a8000080fa003400f9003200f9004f03be0035
:1031b8004f02be004f01be004f00be003600f900ae
:1031c800004006003600f800809fbe00829fbe00c7
:1031d800849fbe00869fbe003200f8003400f800cd
:1031e80010002000a0018800002020009001880025
:1031f8000000fa0060a8200043ff07000080fa00e2
:103208003400f9003200f9004f03be004f02be003f
:103218004f01be004f00be003600f9000040060016
:103228003600f800809fbe00829fbe00849fbe00cb
:10323800869fbe003200f8003400f800100020001d
:10324800a001880000202000900188000000fa00fa
:1032580020ac2000c2fe07000080fa003400f9000c
:103268003200f9004f03be004f02be004f01be00fe
:103278004f00be003600f900004006003600f80096
:10328800809fbe00829fbe00849fbe00869fbe00b6
:103298003200f8003400f80010002000a001880077
:1032a80000202000900188000000fa0020ac2000d7
:1032b80015ff07000080fa003400f9003200f90019
:1032c8004f03be004f02be004f01be004f00be00bc
:1032d8003600f900004006000800fa0010079800c0
:1032e80021079800320798001e0090000000e000b7
:1032f80025003500e10f500003003400e20f5000b4
:1033080011003200210037000000eb00000f7800a8
:10331800080037002e009000904078002e009000a2
:103328000000e80020079800904280004804070049
:103338001e0fe8009e0078003e009000808f50002d
:10334800f4ff3900110037000000eb00000f78008f
:10335800080037002e009000904078002e00900062
:103368000000e80020079800a04280003804070009
:103378001e0fe8009e0078003e009000808f5000ed
:10338800f4ff390001003700000000003e00900003
:103398000080fa00000006000000fa00290a070071
:1033a800406d2000801f78005701200086c0b300c0
:1033b8008082eb0064c0b3008001eb00022f200084
:1033c800212f2000e0af2000320b07008f87e90093
:1033d800a06d2000801f7800a70120000043eb00ab
:1033e8008082eb0074c0b3008001eb00022f200044
:1033f800212f200040b12000260b07008f87e9000d
:1034080040002000801f780030002000801f7800d6
:1034180080c0b300801f78000040eb00801f780058
:10342800406a2000801f7800406a2000801f7800d2
:10343800b0c0b300801f7800c0c0b300801f780000
:103448004709200046082000852220006422200029
:10345800432220002222200001222000e0a0200098
:103468006b000700f087570060002000801f78007d
:1034780050002000801f780080c0b300801f7800b3
:103488000040eb00801f7800606a2000801f7800f1
:10349800606a2000801f7800e0c0b300801f7800b9
:1034a800f0c0b300801f780067092000660820007c
:1034b80085232000642320004323200022232000aa
:1034c80001232000a0a4200051000700f087570026
:1034d800d0012000801f7800c0012000801f7800e4
:1034e80080c0b300801f780080c0b300801f7800c0
:1034f800a06a2000801f7800206a2000801f7800c2
:1035080020c0b300801f780030c0b300801f78004f
:10351800e7092000e6082000852520006425200012
:1035280043252000222520000125200060a8200036
:1035380037000700f0875700f0012000801f78004f
:10354800e0012000801f780080c0b300801f780051
:103558000040eb00801f7800606b2000801f78001f
:10356800606b2000801f780080c0b300801f780047
:1035780090c0b300801f7800e7092000e60820000b
:10358800852b2000642b2000432b2000222b2000b9
:10359800012b200020ac20001d000700f0875700f9
:1035a8000000eb00801f78000000eb00801f78000f
:1035b8000000eb00801f78000000eb00801f7800ff
:1035c8000000eb00801f780010002000801f7800aa
:1035d800e5c4b30006002000676924000002eb0080
:1035e8008001eb0042b12000e1af2000e0a0200004
:1035f80072000700ec875700e0a020009042880086
:10360800e0a02000a04288000080fa000000060028
:103618001000fa00000f78001107980022079800a0
:1036280033079800440798005507980066079800e4
:10363800770798001e0078009e0090000108780027
:103648001e007800ae009000110098001e0078005f
:10365800be009000210098001e007800ce00900067
:10366800310098001e007800de00900041009800ac
:103678001e007800ee009000510098001e007800af
:10368800fe009000610098001e0078008ef89700f8
:10369800614898001e007800eef097007148980085
:1036a8001e007800aeb89700010898001e00780048
:1036b8009eb89700110898001e0078008ef09700b9
:1036c800415098001e007800eee89700515098008d
:1036d8001e007800eeb09700310898001e007800b0
:1036e800deb09700410898001e0078008000eb00cb
:1036f800510898001e0078008000eb0061089800cf
:103708001e0078008000eb00710898001e00780009
:103718008000eb00011098001e0078008000eb008c
:10372800111098001e0078008000eb00211098000e
:103738001e0078008000eb00311098001e00780011
:103748008000eb00411098001e0078008000eb001c
:10375800511098001e0078008000eb00611098005e
:103768001e0078008000eb00711098001e007800a1
:103778008000eb00011898001e0078008000eb0024
:10378800111898001e0078008000eb00211898009e
:103798001e00780011002000311898001e007800e3
:1037a8008000eb00411898001e0078008000eb00b4
:1037b800511898000080fa00000006001000fa0076
:1037c800881f7800000f78001107980022079800da
:1037d8003307980044079800560798006707980031
:1037e800654f98001e007800100078008000eb00fc
:1037f800010878001e00900060009000e10f400072
:103808000c0232002e00900060009000e10f400092
:103818000a0232001e009000000890000000e0003c
:1038280069003a002e009000000890000000e000b7
:1038380065003a001e009000690a07001e0090000b
:10384800c40a07002e0090003e0a07001e007800f8
:103858009e009000510898001e0090009e0078007d
:10386800010898001e0090008000eb0011089800e5
:103878001e0090008000eb00210898001e007800d0
:10388800ae009000610898002e0090009e0078001d
:10389800010898002e0090008000eb0011089800a5
:1038a8002e0090008000eb0021089800113a80005b
:1038b800f00b2000008160006004200071052000ea
:1038c8002374200080497800814978008249780073
:1038d8001e009000700090009e009000f100900083
:1038e800110178009e009000a14890008180fb00a3
:1038f800f30320008118dd008180ea008100610067
:10390800010878001e009000700090009e00900052
:10391800f1009000110178009e007800b109900034
:103928009e009000a14890008180fb008118dd0076
:1039380082807000010878001e007800000890005e
:103948009e00780081089000110178009e007800a0
:10395800c15090008180fb00f30320008118dd0036
:103968008180ea0081006100010878001e0078006b
:10397800000890009e0078008108900011017800ee
:10398800ae009000e10190009e007800c1509000c8
:103998008180fb008118dd008280700001087800ba
:1039a800103a8000000178000260a0006004200046
:1039b800710520002374200080497800814978002f
:1039c800824978000a0037001e007800d00890006d
:1039d8001e009000808f50009a013a001e00780067
:1039e800e00890002e009000808f500097013a0068
:1039f8003e0090000000e000870032004e0090007a
:103a08000000e000840032003e009000600090005a
:103a1800e10f40008f0132004e00900060009000de
:103a2800e10f40008d0132003e0090000008900038
:103a38000000e00069003a004e0090000008900085
:103a48000000e00065003a003e009000e40907002d
:103a58003e0090003f0a07004e009000b909070099
:103a68001e007800be009000710898003e0090008b
:103a78009e007800010898003e0090008000eb004e
:103a8800110898003e0090008000eb002108980083
:103a98001e007800ce009000011098004e009000a3
:103aa8009e007800010898004e0090008000eb000e
:103ab800110898004e0090008000eb002108980043
:103ac800113a8000f00b20000081600060042000a3
:103ad800710520002374200080497800814978000e
:103ae800824978003e00900070009000be0090006f
:103af800f100900011017800be009000a1489000ec
:103b08008180fb00f30320008118dd008180ea003a
:103b180081006100010878003e009000700090006c
:103b2800be009000f1009000110178009e0078001e
:103b3800c1099000be009000a14890008180fb0060
:103b48008118dd0082807000010878001e0078006e
:103b5800100890009e0078009108900011017800ec
:103b68009e007800d15090008180fb00f303200074
:103b78008118dd008180ea00810061000108780079
:103b88001e007800100890009e00780091089000b0
:103b980011017800ce009000e10190009e007800ad
:103ba800d15090008180fb008118dd008280700078
:103bb80001087800103a8000000178000260a00037
:103bc80060042000710520002374200080497800db
:103bd80081497800824978000a0037001e00780081
:103be800f00890003e009000808f50001d013a00c0
:103bf8001e007800801090004e009000808f5000ca
:103c08001a013a001e0078001000780001202000f8
:103c180001087800060037003e0090000000e00030
:103c280014013a004e0090000000e00013013a0031
:103c380018c0b3000240220043a724005e00900091
:103c4800ee009000affa07000000e00001003c0021
:103c58000044eb000804e0000400320000402200a9
:103c680041a72400500798006107980018c0b300c6
:103c780002402200431724005e009000ee009000ee
:103c88009efa07000000e000010035000044eb0048
:103c98000804e0000400320000402200411724001c
:103ca800500798006107980018c0b300024022002e
:103cb800432724005e009000ee0090008ffa070072
:103cc8000000e000010034000044eb000804e000bc
:103cd8000f0032001e007800400490005e01900042
:103ce800ee019000004022004197240041fa0700ad
:103cf8000200200003f02300e1f9070083fa07001f
:103d0800000078000000e900000c7800150037007a
:103d18001e007800100078009e007800910078005e
:103d2800910078000130a000010878001e0078009a
:103d3800400490005e019000ee01900000402200d7
:103d480041a724002bfa07000200200003f02300fb
:103d5800cbf907006dfa0700000078000000e900c1
:103d6800000c7800ee48900050c4b30080cf50009b
:103d780004003200ee48900050c6b30080cf5000d7
:103d880008003a001e007800100078009e007800b5
:103d980091007800910078000110a00001087800d7
:103da80018003700ee489000f0c4b30080cf5000f0
:103db80004003200ee489000f0c6b30080cf5000f7
:103dc80008003a001e007800100078009e00780075
:103dd80091007800910078000120a0000108780087
:103de80008003700ee489000e0c4b30080cf5000d0
:103df80004003200ee489000e0c6b30080cf5000c7
:103e0800a0003a004eb89700e20f500008003a00b0
:103e18001e007800100078009e007800910078005d
:103e2800910078000100a000010878000300370025
:103e38004eb89700e10f500094003a002eb8970052
:103e48000000e00004003a001e007800c160210074
:103e580041189800350037001e00780010009000c7
:103e68009e007800910090009100780001d0a00099
:103e7800010878001e007800aeb89700111098006d
:103e88001e0078009eb89700211098001e00780048
:103e98008000eb00311098001e0078008000eb00d5
:103ea800411098001e0078008000eb005110980027
:103eb8001e007800beb89700311898001e007800e0
:103ec800e1642100411898001e007800500090001d
:103ed8009e007800d1009000110178009e007800c3
:103ee800e14890008180fb00130020008118dd006c
:103ef8008180ea0081006100010878001e007800d6
:103f0800600090009e007800e100900011017800a8
:103f18009e007800e14890008180fb00130020009b
:103f28008118dd0082807000010878000eb89700c3
:103f38000000e00004003a001e0078000163210040
:103f4800511898002b0037001e0078008eb8970093
:103f5800611098001e007800feb09700711098005c
:103f68001e0078008000eb00011898001e00780001
:103f78008000eb00111898001e0078008000eb000c
:103f8800211898001e00780021742100511898000b
:103f98001e007800500090009e007800d10090002c
:103fa800110178009e007800f14890008180fb00a4
:103fb800130020008118dd008180ea008100610083
:103fc800010878001e007800600090009e007800cc
:103fd800e1009000110178009e007800f1489000ff
:103fe8008180fb00130020008118dd0082807000b2
:103ff800010878001e007800100078009e00780004
:10400800910078001101780001002800828070007a
:10401800010878001e007800100090009e007800cb
:10402800910090009100780001a0a000010878009c
:1040380017003700000000001500370000000000de
:1040480013003700000000001100370000000000d6
:104058000f003700000000000d00370000000000ce
:104068000b003700000000000900370000000000c6
:1040780007003700000000000500370000000000be
:1040880003003700000000000100370000000000b6
:104098004f0478000080fa00000006000200fa00d1
:1040a800000f78001e007800100090009e00780035
:1040b800910090009100780001a0a100010878000b
:1040c8001e007800100078008000eb0001087800de
:1040d8001e007800600090009e007800e1009000cb
:1040e800110178009e007800e14890008180fb0073
:1040f800130020008118dd008180ea008100610042
:10410800010878001e007800600090009e0078008a
:10411800e1009000110178009e007800f1489000bd
:104128008180fb00130020008118dd008180ea00f7
:1041380081006100010878001e0078008000eb0013
:10414800411898001e0078008000eb005118980074
:104158001e007800500890000000e0002f00320098
:10416800113a8000f00b20000081600060042000fc
:104178007105200023742000804978008149780067
:10418800824978001e007800500890007000900066
:104198009e007800d1089000f1009000110178008d
:1041a8009e007800d1089000a14890008180fb0013
:1041b800f30320008118dd008180ea00810061009e
:1041c80001087800103a8000000178000260a00021
:1041d80060042000710520002374200080497800c5
:1041e80081497800824978001e00780050089000c4
:1041f8008000eb00010898001e007800500890002d
:10420800f70707001e0078005008900051080700c3
:104218001e0078008000eb00510898001e0078000e
:10422800600890000000e00028003200113a800089
:10423800f00b200000816000600420007105200060
:1042480023742000804978008149780082497800e9
:104258001e007800000890009e00780081089000f9
:10426800110178009e007800c15090008180fb0009
:10427800f30320008118dd008280700001087800b7
:10428800103a8000000178000260a000600420005d
:104298007105200023742000804978008149780046
:1042a800824978001e007800600890008000eb00ca
:1042b800010898001e00780060089000a107070018
:1042c8001e0078008000eb00610898001e0078004e
:1042d800700890000000e0002f003200113a8000c2
:1042e800f00b2000008160006004200071052000b0
:1042f8002374200080497800814978008249780039
:104308001e00780070089000700090009e007800f1
:10431800f1089000f1009000110178009e007800eb
:10432800f1089000a14890008180fb00f303200071
:104338008118dd008180ea008100610001087800b1
:10434800103a8000000178000260a000600420009c
:104358007105200023742000804978008149780085
:10436800824978001e007800700890008000eb00f9
:10437800010898001e007800700890009807070050
:104388001e00780070089000f20707001e007800f1
:104398008000eb00710898001e0078000010900063
:1043a8000000e00028003200113a8000f00b2000e5
:1043b8000081600060042000710520002374200043
:1043c8008049780081497800824978001e00780089
:1043d800100890009e007800910890001101780064
:1043e8009e007800d15090008180fb00f3032000ec
:1043f8008118dd008280700001087800103a800082
:10440800000178000260a00060042000710520000f
:104418002374200080497800814978008249780017
:104428001e007800001090008000eb000108980042
:104438001e00780000109000420707001e00780058
:104448008000eb00011098000080fa0000000600d0
:104458000400fa00000f7800214798001e00780039
:10446800401890000000e000050032001e007800af
:1044780040199000ae4090001e0078000200010034
:104488000080fa00000006000200fa00000f780021
:104498001e007800501890000000e000050032006f
:1044a8001e007800d01890001e007800010001005e
:1044b8000100370000c0eb000080fa000000060091
:1044c8000200fa00000f78001e007800100090002b
:1044d8009000780000402000008060000000e000ac
:1044e80007003a001e007800100090009e00780037
:1044f800910090009100780001a0a00001087800c8
:104508000080fa00000006000400fa00000f78009e
:1045180011079800080037001e009000104078002e
:104528009e0090008100e800110798008040780004
:104538001e007800c6ff07001e009000104078009b
:104548000004e000f4ff3a001e007800dcff0700da
:104558000080fa00000006000a00fa002007980010
:1045680031079800420798004e0090000000e000d4
:10457800870032004e009000e10f500004003a001e
:104588003e0090008040eb00014878008100370031
:10459800b1c1b3002e009000adff070071c3b30096
:1045a8002e009000aaff07002e009000c4ff07000d
:1045b800be00900011079800ce009000010f78000f
:1045c8000300370000000000010037000000000071
:1045d8002e009000acff0700be00900080487800d5
:1045e8003e00900010407800ed4f50000c003a005b
:1045f8003e0090008040eb0001487800a1c0b30065
:104608002e00900092ff0700d1c0b3002e0090004a
:104618008fff07002e009000a9ff07005d003700fc
:104628003e00900010407800fb4f500016003a0002
:10463800b1c1b3002e00900085ff070081c3b3000d
:104648002e00900082ff0700b1c1b3002e00900039
:104658007fff0700b1c5b3002e0090007cff070064
:10466800b1c4b3002e00900079ff07002e0090001f
:1046780093ff07009e00900031079800ce0090003d
:10468800010f7800410037003e009000104078008c
:10469800e84f5000050032003e009000904078003e
:1046a800f0c7b30080cf50001a003a00be00900057
:1046b8001e009000808f50001000360081c0b300ab
:1046c8002e00900062ff070001c2b3002e00900088
:1046d8005fff070081c0b3002e0090005cff070059
:1046e8002e00900076ff07003e0090000000e900d1
:1046f800300798001e0fe8000500370071c0b300ae
:104708002e00900052ff07002e0090006cff07005b
:104718001e0037001e007800e10f500006003a0026
:1047280071c0b3002e00900049ff07002e009000d2
:1047380063ff0700150037003e0090001040780026
:10474800ff4f50009fff36003e00900090407800d9
:10475800e0c7b30080cf50009cff3e003e009000b1
:1047680010407800804078002e00900038ff070045
:104778002e00900052ff07003e0090000000e80065
:10478800300798001e0fe90091ff370090ff3700af
:10479800000000000080fa00000006000200fa0095
:1047a800000f78001e007800010207001e00780044
:1047b800100890000000e000050032001e0078009c
:1047c800900890001e007800010001001a003700d0
:1047d8001e007800200890000000e000140032005d
:1047e8001e007800000890000000e0000a00320077
:1047f8001e007800a00890001e007800010001004b
:104808001e007800000890008000e9001e00780073
:1048180001089800080037001e0078000c02070005
:104828001e0078008000eb00210898000200370085
:104838001e007800060207000080fa00000006004b
:104848003600f800809fbe00829fbe00849fbe0095
:10485800869fbe003200f8003400f80010002000e7
:10486800a001880000202000900188000000fa00c4
:10487800c0bc2000c9ff07000080fa003400f9001e
:104888003200f9004f03be004f02be004f01be00c8
:104898004f00be003600f900004006003600f80060
:1048a800809fbe00829fbe00849fbe00869fbe0080
:1048b8003200f8003400f80010002000a001880041
:1048c80000202000900188000000fa0020be20008f
:1048d800b2ff07000080fa003400f9003200f90046
:1048e8004f03be004f02be004f01be004f00be0086
:1048f8003600f900004006003600f800809fbe0030
:10490800829fbe00849fbe00869fbe003200f800d2
:104918003400f80010002000a001880000202000ca
:10492800900188000000fa0080bf20009bff07006c
:104938000080fa003400f9003200f9004f03be008d
:104948004f02be004f01be004f00be003600f90006
:10495800004006003600f800809fbe00829fbe001f
:10496800849fbe00869fbe003200f8003400f80025
:1049780010002000a001880000202000900188007d
:104988000000fa00e0c0200084ff07000080fa0061
:104998003400f9003200f9004f03be004f02be0098
:1049a8004f01be004f00be003600f900004006006f
:1049b8003600f800809fbe00829fbe00849fbe0024
:1049c800869fbe003200f8003400f8001000200076
:1049d800a001880000202000900188000000fa0053
:1049e80040c220006dff07000080fa003400f90083
:1049f8003200f9004f03be004f02be004f01be0057
:104a08004f00be003600f900004006000000fa0022
:104a1800b0002000801f78004700200036c0b30097
:104a2800450920004408200003102000221020001f
:104a380041102000c0bc2000330007008f87e90028
:104a4800c0002000801f78008003eb0076c0b30010
:104a5800450920004408200063102000c2102000ef
:104a68000111200020be2000270007008f87e900e1
:104a7800d0002000801f78001700200086c0b300f7
:104a88004509200044082000a3102000e21020005f
:104a98002111200080bf20001b0007008f87e9003c
:104aa800e0002000801f780027002000b6c0b30077
:104ab800650920006408200043112000a21120008d
:104ac800e1112000e0c020000f0007008f87e900f7
:104ad800f0002000801f780037002000c6c0b30017
:104ae800650920006408200083112000c2112000fd
:104af8000112200040c22000030007008f87e90050
:104b08000080fa00000006001000fa00000f78008c
:104b18001107980022079800330798004407980067
:104b280055079800464f9800770798001e007800b0
:104b38009e009000010878001e007800ae009000ea
:104b4800110098001e007800be0090002100980017
:104b58001e007800ce009000310098001e007800fa
:104b6800de009000410098001e007800ce489000ba
:104b7800214898001e007800fe009000610098000f
:104b88001e007800ceb89700710098001e007800cb
:104b98008000eb00010898001e0078008000eb0000
:104ba800110898001e0078008000eb00210898008a
:104bb8000080fa00000006000600fa00881f78004e
:104bc800000f7800120798002307980018c0b30058
:104bd800d27b230063f823001e009000ae009000f3
:104be800c8f607000000e00001003c000044eb00ac
:104bf8000804e00069003a0018c0b300d27b230023
:104c080063e823001e009000ae009000bdf6070088
:104c18000000e00001003c000044eb000804e00054
:104c2800120032001e007800c40007001e00780041
:104c38001000780001032000010878001e007800a9
:104c48001004900002402200437724001e009000c8
:104c5800ae0090001df70700acf6070000007800d2
:104c68000000e900000c78004d00370018c0b300c0
:104c7800d27b230063d023001e009000ae0090007a
:104c8800a0f607000000e00001003c000044eb0033
:104c98000804e000120032001e007800a700070098
:104ca8001e0078001000780001022000010878003a
:104cb8001e00780010049000024022004387240060
:104cc8001e009000ae00900000f707008ff6070066
:104cd800000078000000e900000c78003000370080
:104ce80018c0b300d27b230063b823001e009000d5
:104cf800ae00900083f607000000e00001003c00d1
:104d08000044eb000804e000120032001e007800a6
:104d18008a0007001e0078001000780001012000ba
:104d2800010878001e00780010049000024022005c
:104d3800439f24001e009000ae009000e3f6070099
:104d480072f60700000078000000e900000c780007
:104d5800130037001e007800780007001e00780056
:104d6800100078008000eb00010878001e00780031
:104d7800100490000240220043b724001e00900057
:104d8800ae009000d1f6070060f60700000078003a
:104d98000000e900000c7800010037000000000066
:104da8004f0478000080fa00000006000400fa00b2
:104db800889fbe00100798001e0090001000780021
:104dc8009000780000032000008060004400de00ae
:104dd800000f78001e007800c200dd00c0c7200068
:104de800008040001004be001e00900010009000db
:104df800100078008000eb005ff60700020020003a
:104e080003f823009ef507000001be000800be005d
:104e1800aef607004f04be000080fa00000006004e
:104e28000600fa00000f7800120798002307980080
:104e38001e019000ae0190000000200001f8230040
:104e4800ecf507000001be001e0078005aff0700bd
:104e58000080fa00000006000200fa00000f780047
:104e68001e007800d1ff07000001be0000002000ee
:104e780001f82300dff507000080fa0000000600b3
:104e88000400fa00889fbe00100798001e009000da
:104e98001000780090007800000320000080600077
:104ea8004400de00000f78001e007800c200dd001c
:104eb800c0c72000008040001004be001e00900003
:104ec80010009000100078008000eb002af6070020
:104ed8000200200003f8230069f507000001be0066
:104ee8000800be0079f607004f04be000080fa00f3
:104ef800000006000200fa00000f78001e0078008b
:104f08002b0007001e007800200090008000eb00b6
:104f1800010878001e007800100078009e007800d4
:104f2800910078001101780001002800828070004b
:104f3800010878000080fa00000006000200fa006c
:104f4800000f78001e007800100078009e0078009e
:104f58009100780011017800f1ff270081006100bd
:104f6800010878000080fa00000006000200fa003c
:104f7800000f78001e007800300090009000780044
:104f88001e007800204890000080fb0012002000de
:104f98000010dd000080600000f0a7000000ea00bb
:104fa8000000ea004f00de000080fa000000060062
:104fb8000200fa00000f78001e0078003000900010
:104fc8009e007800b1009000110178009e007800e2
:104fd800a14890008180fb00130020008118dd00ab
:104fe8008180ea0081006100010878000080fa00f1
:104ff800000006000200fa00000f78001e0078008a
:1050080020009000100078000080fa0000000600e0
:105018000200fa00000f78001e007800400090009f
:105028009e007800c1009000110178009e00780071
:10503800a14890008180fb00130020008118dd004a
:1050480082807000010878000080fa0000000600e5
:105058000200fa00000f78001e007800400090005f
:105068009e007800c1009000110178009e00780031
:10507800a14890008180fb00130020008118dd000a
:105088008180ea0081006100010878000080fa0050
:10509800000006000800fa00000f780012079800c8
:1050a80023079800310798001e007800e8ff0700e2
:1050b8001e019000ae0190001e007800befe0700a1
:1050c8001e0078008000eb00010898001e007800a0
:1050d800be009000110898001e0078008000eb00c8
:1050e800210898001e007800c9ff07001e007800fc
:1050f80080ff07000080fa00000006000a00fa009e
:10510800000f7800120798002307980031079800cd
:10511800440798001e007800cdff07001e0190008c
:10512800ae0190001e007800a3fe07001e00780064
:10513800be009000010898001e0078008000eb0077
:10514800110898001e007800ce00900021089800f1
:105158001e007800aeff07001e00780065ff0700fc
:105168000080fa00000006000200fa00000f780034
:105178001e007800b6ff07001e0078008cff0700ad
:105188001e0078006dff07001e0078008000eb000d
:10519800010898001e0078008000eb0011089800b4
:1051a8001e0078008000eb00210898000080fa00bb
:1051b800000006000000fa0080002000801f780030
:1051c800770020000043eb00856a2000842420003b
:1051d800432420002224200001242000a0c3200012
:1051e8001b0007008f87e900b0002000801f7800af
:1051f800a70020000043eb00c56a20008426200099
:1052080043262000222620000126200000c5200079
:105218000f0007008f87e90010022000801f780028
:10522800070220000043eb00856b20008428200043
:1052380043282000222820000128200060c62000e2
:10524800030007008f87e9000080fa0000000600cd
:105258001000fa00000f7800110798002207980044
:10526800330798004407980055079800464f980060
:10527800770798001e0078009e00900001087800cb
:105288001e007800ae009000110098001e00780003
:10529800be009000210098001e007800ce0090000b
:1052a800310098001e007800de0090004100980050
:1052b8001e007800ce489000214898001e00780013
:1052c800fe009000610098001e007800ceb897009c
:1052d800710098001e0078008000eb00010898001b
:1052e8001e0078008000eb00110898001e0078006e
:1052f8008000eb00210898000080fa0000000600fa
:105308001a00fa00881f7800600798007107980053
:10531800020f9800130f9800240f9800350f98007b
:10532800065f980000102000200798000000eb009e
:10533800300798000014200040079800000420005f
:10534800500798007e00900060009000e10f400038
:10535800360132000e08900060009000e10f400016
:10536800340132001e08900060009000e10f4000f8
:10537800320132007e009000000890000000e0003a
:1053880097003a000e089000000890000000e00026
:1053980093003a001e089000000890000000e0000a
:1053a8008f003a007e009000660307000e08900008
:1053b8008b0307000e089000e60307001e08900004
:1053c800870307001e089000f70307006e0090008f
:1053d800fe009000010898007e009000ee0090000a
:1053e800010898007e0090008000eb0011089800ea
:1053f8007e0090008000eb00210898006e0090006d
:105408008e089000110898000e089000ee00900099
:10541800010898000e0890008000eb001108980021
:105428000e0890008000eb00210898006e009000a4
:105438009e089000210898001e089000ee00900039
:10544800010898001e0890008000eb0011089800e1
:105458001e0890008000eb0021089800113a800097
:10546800f00b20000081600060042000710520001e
:1054780023742000804978008149780082497800a7
:105488006e00900040009000ee009000c100900077
:1054980011017800ee009000a14890008180fb0087
:1054a800f30320008118dd008180ea00810061009b
:1054b800010878006e00900040009000ee00900017
:1054c800c100900011017800fe009000e1019000f9
:1054d800ee009000a14890008180fb008118dd005b
:1054e80082807000010878000e089000700090001b
:1054f8008e089000f1009000110178008e0890004d
:10550800a14890008180fb00f30320008118dd0092
:105518008180ea0081006100010878000e0890008f
:10552800700090008e089000f10090001101780042
:10553800ee009000e10190008e089000a1489000d4
:105548008180fb008118dd008280700001087800ee
:105558001e089000700090009e089000f1009000d6
:10556800110178009e089000a14890008180fb00fe
:10557800f30320008118dd008180ea0081006100ca
:10558800010878001e089000700090009e089000a6
:10559800f100900011017800ee009000f1019000f8
:1055a8009e089000a14890008180fb008118dd00d2
:1055b8008280700001087800103a800000017800ad
:1055c8000260a00060042000710520002374200000
:1055d8008049780081497800824978000f003700b7
:1055e8006e009000800890007e009000808f500030
:1055f80094003a006e009000900890000e08900009
:10560800808f500091003a006e009000a008900032
:105618001e089000808f50008e003a0018c0b3001a
:105628000240220043af24002e089000be089000dc
:1056380034f407000000e00001003c000044eb00e7
:105648000804e000040032000040220041af2400ba
:10565800200f9800310f980018c0b30002402200b4
:10566800436f24002e089000be08900023f4070022
:105678000000e000010035000044eb000804e000f1
:105688000400320000402200416f2400200f9800df
:10569800310f980018c0b30002402200437f240055
:1056a8002e089000be08900014f407000000e000e7
:1056b800010034000044eb000804e0000a00320056
:1056c80002002000032824002e089000be08900045
:1056d8007ef40700200f9800310f98000000eb00bf
:1056e800000f78002c00370018c0b30002402200d9
:1056f800438f24002e089000be089000fff3070097
:105708000000e000010034000044eb000804e00061
:105718000a00320002002000031824002e0890001e
:10572800be08900069f40700200f9800310f980018
:1057380010002000000f78001700370018c0b300d1
:1057480002402200439f24002e089000be089000cb
:10575800eaf307000000e000010034000044eb0019
:105768000804e0000a0032000200200003082400b8
:105778002e089000be08900054f40700200f9800ef
:10578800310f980020002000000f78000200370039
:1057980030002000000f78002e099000be0990000c
:1057a8000040220041b7240092f3070002002000c5
:1057b80003f0230032f30700d4f307001007980022
:1057c8001e009000680010004200dd0010079800dd
:1057d8006e009000900090000e5890000080fb0032
:1057e80063006000000040006401470000004100c1
:1057f800100078001e0170001e009000020070006a
:105808000050a000800878006e00900020009000f2
:105818008000eb00010878006e009000100078000e
:1058280001002800010878000b0037000000000084
:1058380009003700000000000700370000000000e2
:1058480005003700000000000300370000000000da
:1058580001003700000000004f0478000080fa00c3
:10586800000006000200fa00000f78001e00780011
:10587800100078008000eb00010878001e00780016
:10588800100090008000eb00010878001e007800ee
:10589800200090008000eb00010878001e007800ce
:1058a800000890000000e00028003200113a800053
:1058b800f00b2000008160006004200071052000ca
:1058c8002374200080497800814978008249780053
:1058d8001e007800400090009e007800c1009000f3
:1058e800110178009e007800a14890008180fb009b
:1058f800f30320008118dd00828070000108780021
:10590800103a8000000178000260a00060042000c6
:1059180071052000237420008049780081497800af
:10592800824978001e007800000890008000eb0093
:10593800010898001e007800000890000102070086
:105948001e0078008000eb00010898001e00780017
:10595800100890000000e0002f003200113a80008b
:10596800f00b200000816000600420007105200019
:1059780023742000804978008149780082497800a2
:105988001e00780010089000700090009e007800bb
:1059980091089000f1009000110178009e007800b5
:1059a80091089000a14890008180fb00f30320003b
:1059b8008118dd008180ea0081006100010878001b
:1059c800103a8000000178000260a0006004200006
:1059d80071052000237420008049780081497800ef
:1059e800824978001e007800100890008000eb00c3
:1059f800010898001e00780010089000f8010700c0
:105a08001e00780010089000520207001e0078005f
:105a18008000eb00110898001e0078002008900014
:105a28000000e0002f003200113a8000f00b200047
:105a380000816000600420007105200023742000ac
:105a48008049780081497800824978001e007800f2
:105a580020089000700090009e007800a108900037
:105a6800f1009000110178009e007800a1089000d4
:105a7800a14890008180fb00f30320008118dd001d
:105a88008180ea008100610001087800103a8000f6
:105a9800000178000260a000600420007105200069
:105aa8002374200080497800814978008249780071
:105ab8001e007800200890008000eb000108980084
:105ac8001e00780020089000c50107001e0078001d
:105ad80020089000340207001e0078008000eb00c8
:105ae800210898000080fa00000006000400fa006f
:105af800000f7800214798001e00780030009000c1
:105b0800ae4090008180fb00010878000000000092
:105b18001e00780010007800100078006100600016
:105b28000000e000faff32001e007800300090000c
:105b380010007800004078000080fa00000006009d
:105b48000400fa00000f7800110798001e0090006a
:105b58000000e0000d0032001e0078001000780000
:105b68009e00780091007800110178009e0078006e
:105b7800e14090008180fb00130020008118dd00c7
:105b880082807000010878000d0037001e00780040
:105b9800100078009e0078009100780011017800cc
:105ba8009e007800e14090008180fb0013002000f7
:105bb8008118dd008180ea00810061000108780019
:105bc8000080fa00000006000200fa00000f7800ca
:105bd8001e00780010007800900078001e00780001
:105be800604090000080fb00120020000010dd00e3
:105bf8000080600000f0a7000000ea000000ea0052
:105c08004f00de000080fa00000006000200fa00e3
:105c1800000f78001e0078004000900040198800ae
:105c28002023a80000000000001980006100600027
:105c38000000e000fcff3200001880000080fa003d
:105c4800000006000200fa00406d2000801f780066
:105c5800470120000043eb008082eb0054c0b300f2
:105c68008001eb00822d2000a12d200060852000fe
:105c7800080107008f87e900806d2000801f7800e9
:105c88009701200086c0b3008082eb0044c0b300b7
:105c98008001eb00822d2000a12d2000c08620006d
:105ca800fc0007008f87e900a06c2000801f7800a7
:105cb800a70020000043eb008082eb0044c0b30043
:105cc8008001eb00822e2000a12e200020882000d9
:105cd800f00007008f87e900006d2000801f780022
:105ce8001701200086c0b3008082eb0054c0b300c7
:105cf8008001eb00822e2000a12e20008089200048
:105d0800e40007008f87e900c06d2000801f78003d
:105d1800d701200086c0b300f5002000f4c0b3000e
:105d2800234e2000822c2000a12c2000e08a200095
:105d3800d80007008f87e900006d2000801f7800d9
:105d4800070120000043eb008082eb0034c0b30061
:105d58008001eb00822e2000a12e2000408c200024
:105d6800cc0007008f87e900206c2000801f780096
:105d7800270020000043eb008082eb0084c0b300c2
:105d88008001eb00822d2000a12d2000a08d200095
:105d9800c00007008f87e900c06c2000801f7800d2
:105da800c70020000043eb008082eb00b4c0b300c2
:105db8008001eb00822d2000a12d2000008f200003
:105dc800b40007008f87e900406c2000801f78002e
:105dd800470020000043eb008082eb0094c0b30032
:105de8008001eb00822d2000a12d20006090200072
:105df800a80007008f87e900206c2000801f78002a
:105e08003700200086c0b3008082eb00a4c0b30036
:105e18008001eb00822d2000a12d2000c0912000e0
:105e28009c0007008f87e900a06c2000801f780085
:105e3800b700200086c0b3008082eb000042eb0070
:105e48008001eb00822d2000a12d2000209320004e
:105e5800900007008f87e900806d2000801f780080
:105e6800870120000043eb008082eb0014c0b300e0
:105e78008001eb00822d2000a12d200080942000bd
:105e8800840007008f87e900606d2000801f78007c
:105e98007701200086c0b3008082eb0024c0b300e5
:105ea8008001eb00822d2000a12d2000e09520002c
:105eb800780007008f87e900606d2000801f780058
:105ec800670120000043eb008082eb0034c0b30080
:105ed8008001eb00822d2000a12d2000409720009a
:105ee8006c0007008f87e900006c2000801f780095
:105ef8008003eb000043eb008002eb000042eb0064
:105f0800234e2000822c2000a12c2000809f2000fe
:105f1800600007008f87e900006c2000801f780070
:105f28001700200086c0b3001500200014c0b3007d
:105f3800234e2000822c2000a12c2000209e20002f
:105f4800540007008f87e900c06c2000801f78008c
:105f5800d700200086c0b3002500200024c0b3006d
:105f6800234e2000822c2000a12c2000c09c200061
:105f7800480007008f87e9000000eb00801f7800c9
:105f88008083eb000043eb003500200034c0b300f1
:105f9800234e2000822c2000a12c2000609b200092
:105fa8003c0007008f87e900c06d2000801f780043
:105fb800c70120000043eb004500200044c0b300a7
:105fc800234e2000822c2000a12c2000009a2000c3
:105fd800300007008f87e900206d2000801f7800bf
:105fe800270120000043eb005500200054c0b300f7
:105ff800234e2000822c2000a12c2000a0982000f5
:10600800240007008f87e9000000eb00000f7800ec
:10601800070037001e0078007600b900800078007d
:106028006085200000804000460007001e0fe80041
:106038001e007800ed0f5000f6ff36000000eb0060
:10604800000f7800070037001e0078007600b900be
:1060580080007800a098200000804000950007008c
:106068001e0fe8001e007800e50f5000f6ff36000e
:10607800002e2000001988002223ef0000c4200011
:10608800201988002823ef0021e3a8000080fa00e7
:10609800000006001000fa00000f780011079800b1
:1060a8002207980033079800044f98005507980076
:1060b800464f9800770798001e0078009e009000d1
:1060c800010878001e007800ae00900011009800ca
:1060d8001e007800be009000210098001e00780085
:1060e8008e489000614098001e007800de00900005
:1060f800410098001e007800ce4890002148980082
:10610800fe0090001e007800610098001e007800d4
:10611800ceb89700710098001e0078008000eb0050
:10612800010898001e0078008000eb001108980014
:106138001e0078008000eb00210898000080fa001b
:10614800000006000200fa00000f78001e00780028
:10615800200090000000e0000d0032001e007800d2
:10616800200090009e007800a100900011017800a6
:106178009e007800e14090008180fb001300200021
:106188008118dd008180ea00810061000108780043
:106198001e007800100090009e007800910090008a
:1061a800110178009e007800e14090008180fb009a
:1061b800130020008118dd0082807000010878003b
:1061c8001e0078008000eb00110898001e0078007f
:1061d80081de2200210898000080fa0000000600f5
:1061e8000200fa00000f78001e00780020009000de
:1061f8000000e0000d0032001e0078002000900032
:106208009e007800a1009000110178009e0078009f
:10621800e14090008180fb00130020008118dd0020
:106228008180ea0081006100010878001e00780082
:10623800100078009e007800910078001101780025
:106248009e007800e14090008180fb001300200050
:106258008118dd008180ea00810061000108780072
:106268001e007800100090009e00780091009000b9
:10627800110178009e007800e14090008180fb00c9
:10628800130020008118dd008180ea008100610090
:10629800010878001e00780041da220011089800f1
:1062a8001e00780081de2200210898000080fa0094
:1062b800000006000200fa00000f78001e007800b7
:1062c800200090000000e0001f0032001e0078004f
:1062d800100090009e007800910090001101780055
:1062e8009e007800e14090008180fb0013002000b0
:1062f8008118dd0082807000010878001e00780097
:10630800200090009e007800a10090001101780004
:106318009e007800e14090008180fb00130020007f
:106328008118dd0082807000010878001e00780066
:106338008000eb00110898001e007800a1e0220000
:106348002108980001003700000000000080fa00d2
:10635800000006000200fa00000f78001e00780016
:106368009008900040da2200808f50000c003a001c
:106378001e007800100078009e00780091007800d8
:10638800110178009e007800e14090008180fb00b8
:10639800130020008118dd00828070000108780059
:1063a8000080fa00000006000200fa00000f7800e2
:1063b8001e0078009008900040da2200808f50007c
:1063c8000d003a001e007800100078009e0078004a
:1063d80091007800110178009e007800e14090005b
:1063e8008180fb00130020008118dd008180ea0015
:1063f80081006100010878000080fa0000000600b2
:106408000200fa00000f78001e0078009008900043
:1064180040da2200808f50000c003a001e007800fd
:10642800100078009e007800910078001101780033
:106438009e007800e14090008180fb00130020005e
:106448008118dd0081006900010878000080fa00e9
:10645800000006000400fa00000f780011079800f9
:106468001e007800100890000000e00005003200cf
:106478001e007800100990009e0090001e00780011
:10648800020001000080fa00000006000200fa0085
:10649800000f78001e007800200890000000e0003f
:1064a800050032001e007800a00890001e00780049
:1064b80001000100010037000080eb000080fa00b5
:1064c800000006000800fa00300798003e0090001f
:1064d80000089000000f78000000eb0010079800fb
:1064e8001e00780030009000100078002007980007
:1064f8001e029000ae0290001e007800200090005e
:10650800100078008000eb000001be000400be000f
:1065180022f10700000078000080fa000000060061
:106528000a00fa0030079800410798003e009000e2
:1065380000089000000f78004e0090006101b8003c
:106548001e00780020009000100078008000eb000a
:10655800009ab90004027800028bb900860278001c
:10656800050242000010b8000102420084007800d1
:1065780010079800210798001e007800300090004e
:10658800ae009000010878000080fa0000000600c4
:106598000800fa00300798003e00900000089000bc
:1065a800000f78000000eb00100798001e0078002c
:1065b80020009000900078001e0078006000900095
:1065c80000805000200798001e029000ae02900044
:1065d8001e007800700090008000eb000001be00f3
:1065e8000400be00edf00700000078000080fa000b
:1065f800000006000a00fa003007980041079800da
:106608003e00900000089000000f78004e009000b7
:106618006101b8001e007800700090008000eb0057
:10662800009ab90004027800028bb900860278004b
:10663800050242000010b800010242008400780000
:1066480010079800210798001e007800200090008d
:106658009e00780061019000ae009000810041002a
:10666800010878000080fa00000006000000fa0027
:1066780026012000851920006419200043192000f4
:106688002219200001192000a0b2200042000700b2
:1066980036012000251a2000041a2000e3192000e2
:1066a800c2192000a1192000c0b320003a00070039
:1066b80046012000c51a2000a41a2000831a2000d1
:1066c800621a2000411a2000e0b4200032000700be
:1066d80056012000651b2000441b2000231b2000be
:1066e800021b2000e11a200000b620002a00070043
:1066f80066012000051c2000e41b2000c31b2000ad
:10670800a21b2000811b200020b7200022000700c8
:1067180076012000a51c2000841c2000631c20009a
:10672800421c2000211c200040b820001a0007004d
:1067380086012000451d2000241d2000031d200087
:10674800e21c2000c11c200060b9200012000700d4
:1067580096012000e51d2000c41d2000a31d200077
:10676800821d2000611d200080ba20000a00070059
:1067780036022000851e2000641e2000431e2000d3
:10678800221e2000011e2000a0bb200002000700de
:106798000080fa00000006000e00fa00000f7800e2
:1067a80011079800220798003307980044079800bb
:1067b80055079800660798001e0078009e00900014
:1067c800010878001e007800ae00900011009800c3
:1067d8001e007800be009000210098001e0078007e
:1067e800ce009000310098001e007800de00900076
:1067f800410098001e00780001e82300610098001d
:106808001e00780001e82300710098001e0078003f
:10681800ee009000510098001e0078008000eb0008
:10682800010898000080fa00000006000200fa0043
:10683800000f78001e007800100078008000eb0040
:10684800010878001e007800100090008000eb001e
:10685800010878001e007800000890000000e000a1
:106868002f003200113a8000f00b200000816000f8
:1068780060042000710520002374200080497800fe
:1068880081497800824978001e007800000890004d
:10689800700090009e00780081089000f100900040
:1068a800110178009e00780081089000a1489000ae
:1068b8008180fb00f30320008118dd008180ea005d
:1068c8008100610001087800103a8000000178001a
:1068d8000260a000600420007105200023742000dd
:1068e8008049780081497800824978001e00780044
:1068f800000890008000eb00010898001e00780056
:106908000008900036fe07001e007800000890007e
:10691800a5fe07001e0078008000eb000108980023
:106928000080fa00000006001000fa00881f7800b6
:1069380020079800310798004207980054079800ec
:1069480065079800730798003e009000600090006b
:10695800e10f40009c0032003e00900000089000cb
:106968000000e00033003a002e009000be009000c6
:10697800010898003e009000ae00900001089800c1
:10698800113a8000f00b20000081600060042000b4
:10699800710520002374200080497800814978001f
:1069a800824978003e00900070009000be00900080
:1069b800f100900011017800be009000a1489000fd
:1069c8008180fb00f30320008118dd008180ea004c
:1069d80081006100010878003e009000700090007e
:1069e800be009000f100900011017800ae00900008
:1069f800d1019000be009000a14890008180fb006a
:106a08008118dd008280700001087800103a80004b
:106a1800000178000260a0006004200071052000d9
:106a280023742000804978008149780082497800e1
:106a3800050037003e009000800890002e0090006e
:106a4800808f500062003a004e0090000000e00085
:106a58001c0032002e00900010007800ce0090003c
:106a6800e1009000ca08dd006100b3000108780069
:106a78002e00900010009000f1012000010878001d
:106a88005e019000ee0190004e009000e4f80700cf
:106a98002e00900020009000ce0090009100900001
:106aa80091007800010878002e00900040009000c6
:106ab8008000eb00010878004e0090000df90700f7
:106ac800250037002e0090001000780061c02100da
:106ad800010878002e00900010009000f1012000bd
:106ae8000108780018c0b300024022004337240090
:106af8005e009000ee00900000ef07000000e0004c
:106b0800010035000044eb000804e00005003200f5
:106b18002e009000200090008080eb000108780093
:106b28000d0037002e009000200490005e019000b8
:106b3800ee0190000040220041b72400adee0700ae
:106b48000200200003f823004cee0700efee0700d8
:106b580000007800000c78007e0090006101b80009
:106b68002e00900020009000100078008000eb00bc
:106b7800009ab90004027800028bb90086027800f6
:106b8800050242000010b8000102420084007800ab
:106b9800008fbe002e009000300090009e009000f4
:106ba800010878002e009000000890004129230079
:106bb800110898002e00900000089000612623001c
:106bc800210898000300370000000000010037008a
:106bd800000000004f0478000080fa000000060062
:106be8001400fa002007980031079800420798001f
:106bf800540798006507980076079800070f9800d3
:106c0800130f98003e00900060009000e10f4000d4
:106c1800860032003e009000000890000000e0006e
:106c280033003a002e009000be0090000108980042
:106c38003e009000ae00900001089800113a8000d4
:106c4800f00b200000816000600420007105200026
:106c580023742000804978008149780082497800af
:106c68003e00900070009000be009000f10090007f
:106c780011017800be009000a14890008180fb00bf
:106c8800f30320008118dd008180ea0081006100a3
:106c9800010878003e00900070009000be0090004f
:106ca800f100900011017800ae009000d101900031
:106cb800be009000a14890008180fb008118dd0093
:106cc8008280700001087800103a80000001780086
:106cd8000260a000600420007105200023742000d9
:106ce800804978008149780082497800050037009a
:106cf8003e009000800890002e009000808f500089
:106d08004c003a004e0090000000e0004a003200bb
:106d18000240220043b724007e0090008e089000b5
:106d2800eaee070079ee0700800078002e00900058
:106d3800610098007e0190008e0990003eb897008f
:106d4800ceb89700cded07000240220043b72400db
:106d5800deee07006dee0700800078002e00900040
:106d6800710098002e00900010007800f1c02100fa
:106d7800010878002e00900010009000ce009000ce
:106d8800f10090000170a000010878002e0090002a
:106d98003000900011002000010878001e089000c3
:106da8006101b8002e009000700090008000eb0098
:106db800009ab90004027800028bb90086027800b4
:106dc800050242000010b800010242008400780069
:106dd800008fbe002e00900020009000ae009000b2
:106de800610190009e009000810041000108780038
:106df8005e019000ee0190004e0090006ef70700d3
:106e08004e0090003bf807002e009000000890000c
:106e1800e12f2300110898002e0090000008900030
:106e2800c12c23002108980003003700000000004f
:106e380001003700000000000080fa000000060092
:106e48000000fa0074c0b300634e2000822d2000b9
:106e5800a12d200000802000200007000042eb0048
:106e6800a34e2000822e2000a12e2000808020002a
:106e78001a00070014c0b300a34e2000822e200081
:106e8800a12e20000081200014000700f4c0b300e8
:106e9800434e2000022d2000212d2000808120005b
:106ea800ad000700c4c0b300434e2000022d2000ef
:106eb800212d200000822000a7000700c4c0b300d5
:106ec800234e2000822c2000a12c2000808220004c
:106ed800a10007000080fa00000006000a00fa007e
:106ee800000f7800110798002207980033079800d0
:106ef800044f98001e0078009e009000010878005a
:106f08001e007800ae009000110098001e00780066
:106f1800be009000210098001e0078008e48900066
:106f2800614098001e007800200090009e007800c4
:106f3800a1009000110178009e007800e1409000c7
:106f48008180fb00130020008118dd008180ea00a9
:106f580081006100010878001e00780010007800a8
:106f68009e00780091007800110178009e0078005a
:106f7800e14090008180fb00130020008118dd00b3
:106f88008180ea0081006100010878001e00780015
:106f9800100090009e007800910090001101780088
:106fa8009e007800e14090008180fb0013002000e3
:106fb8008118dd008180ea00810061000108780005
:106fc8000080fa00000006000200fa00000f7800b6
:106fd8001e007800100078009e007800910078006c
:106fe800110178009e007800e14090008180fb004c
:106ff800130020008118dd008280700001087800ed
:107008000080fa00000006000200fa00000f780075
:107018001e007800100078009e007800910078002b
:10702800110178009e007800e14090008180fb000b
:10703800130020008118dd008180ea0081006100d2
:10704800010878000080fa00000006000200fa003b
:10705800000f78001e007800100078009e0078006d
:1070680091007800110178009e007800e1409000be
:107078008180fb00130020008118dd008100690079
:10708800010878000080fa00000006000400fa00f9
:10709800000f7800110798001e0090000000e00023
:1070a8000d0032001e007800100078009e00780065
:1070b80091007800110178009e007800e14090006e
:1070c8008180fb00130020008118dd0082807000a1
:1070d800010878000d0037001e00780010007800c5
:1070e8009e00780091007800110178009e007800d9
:1070f800e14090008180fb00130020008118dd0032
:107108008180ea0081006100010878000080fa00af
:10711800000006000200fa00000f78001e00780048
:1071280010007800900078001e0078006040900001
:107138000080fb00120020000010dd0000806000cd
:1071480000f0a7000000ea000000ea004f00de009f
:107158000080fa00000006000a00fa00000f78001c
:10716800110798002207980033079800044f9800e9
:107178001e0078009e009000010878001e0078002c
:10718800ae009000110098001e007800be0090002c
:10719800210098001e0078008e48900061409800f9
:1071a8001e007800200090009e007800a10090004a
:1071b800110178009e007800e14090008180fb007a
:1071c800130020008118dd008180ea008100610041
:1071d800010878001e007800100090009e007800da
:1071e80091009000110178009e007800e140900025
:1071f8008180fb00130020008118dd008280700070
:10720800010878000080fa00000006000200fa0079
:10721800000f78001e0078001000780090007800b9
:107228001e007800604090000080fb0012002000e3
:107238000010dd000080600000f0a7000000ea00f8
:107248000000ea004f00de000080fa00000006009f
:107258000200fa00000f78001e007800e10f5000cd
:1072680003003a008041800088fc070007003700cf
:107278001e007800e20f500003003a0090418000a1
:1072880082fc070001003700000037000080fa0088
:10729800000006000400fa00000f780011079800ab
:1072a8001e007800e10f500004003a009e00900094
:1072b800a041800067fc0700060037001e00780028
:1072c800e20f500003003a009e009000b041800099
:1072d80060fc07000080fa00000006000000fa00c9
:1072e80000102000203a88002bf0070055fa07000c
:1072f800d3fe0700c5f5070060852000804188009f
:10730800c08620009041880020882000a041880085
:1073180080892000b04188008041800089fb0700f7
:107328009041800087fb0700a0418000acfb07006c
:10733800b0418000aafb07003a28ef003c28ef0084
